{
  "abi": [
    {
      "inputs": [
        {
          "internalType": "address",
          "name": "_feeAccount",
          "type": "address"
        },
        {
          "internalType": "uint256",
          "name": "_feePercentage",
          "type": "uint256"
        },
        {
          "internalType": "address",
          "name": "_token",
          "type": "address"
        }
      ],
      "stateMutability": "nonpayable",
      "type": "constructor"
    },
    {
      "anonymous": false,
      "inputs": [
        {
          "indexed": false,
          "internalType": "address",
          "name": "token",
          "type": "address"
        },
        {
          "indexed": false,
          "internalType": "uint256",
          "name": "_amount",
          "type": "uint256"
        },
        {
          "indexed": false,
          "internalType": "address",
          "name": "depositer",
          "type": "address"
        }
      ],
      "name": "Deposited",
      "type": "event"
    },
    {
      "anonymous": false,
      "inputs": [
        {
          "components": [
            {
              "internalType": "uint256",
              "name": "id",
              "type": "uint256"
            },
            {
              "internalType": "address",
              "name": "user",
              "type": "address"
            },
            {
              "internalType": "address",
              "name": "tokenGet",
              "type": "address"
            },
            {
              "internalType": "uint256",
              "name": "amountGet",
              "type": "uint256"
            },
            {
              "internalType": "address",
              "name": "tokenGive",
              "type": "address"
            },
            {
              "internalType": "uint256",
              "name": "amountGive",
              "type": "uint256"
            },
            {
              "internalType": "uint256",
              "name": "timestamp",
              "type": "uint256"
            }
          ],
          "indexed": false,
          "internalType": "struct Exchange._Order",
          "name": "Order",
          "type": "tuple"
        }
      ],
      "name": "Order",
      "type": "event"
    },
    {
      "anonymous": false,
      "inputs": [
        {
          "components": [
            {
              "internalType": "uint256",
              "name": "id",
              "type": "uint256"
            },
            {
              "internalType": "address",
              "name": "user",
              "type": "address"
            },
            {
              "internalType": "address",
              "name": "tokenGet",
              "type": "address"
            },
            {
              "internalType": "uint256",
              "name": "amountGet",
              "type": "uint256"
            },
            {
              "internalType": "address",
              "name": "tokenGive",
              "type": "address"
            },
            {
              "internalType": "uint256",
              "name": "amountGive",
              "type": "uint256"
            },
            {
              "internalType": "uint256",
              "name": "timestamp",
              "type": "uint256"
            }
          ],
          "indexed": false,
          "internalType": "struct Exchange._Order",
          "name": "Order",
          "type": "tuple"
        }
      ],
      "name": "OrderCanceled",
      "type": "event"
    },
    {
      "anonymous": false,
      "inputs": [
        {
          "components": [
            {
              "internalType": "uint256",
              "name": "id",
              "type": "uint256"
            },
            {
              "internalType": "address",
              "name": "user",
              "type": "address"
            },
            {
              "internalType": "address",
              "name": "tokenGet",
              "type": "address"
            },
            {
              "internalType": "uint256",
              "name": "amountGet",
              "type": "uint256"
            },
            {
              "internalType": "address",
              "name": "tokenGive",
              "type": "address"
            },
            {
              "internalType": "uint256",
              "name": "amountGive",
              "type": "uint256"
            },
            {
              "internalType": "uint256",
              "name": "timestamp",
              "type": "uint256"
            }
          ],
          "indexed": false,
          "internalType": "struct Exchange._Order",
          "name": "Order",
          "type": "tuple"
        }
      ],
      "name": "OrderFilled",
      "type": "event"
    },
    {
      "anonymous": false,
      "inputs": [
        {
          "indexed": true,
          "internalType": "address",
          "name": "previousOwner",
          "type": "address"
        },
        {
          "indexed": true,
          "internalType": "address",
          "name": "newOwner",
          "type": "address"
        }
      ],
      "name": "OwnershipTransferred",
      "type": "event"
    },
    {
      "anonymous": false,
      "inputs": [
        {
          "indexed": false,
          "internalType": "address",
          "name": "withdrawer",
          "type": "address"
        },
        {
          "indexed": false,
          "internalType": "address",
          "name": "token",
          "type": "address"
        },
        {
          "indexed": false,
          "internalType": "uint256",
          "name": "amount",
          "type": "uint256"
        }
      ],
      "name": "Withdraw",
      "type": "event"
    },
    {
      "inputs": [
        {
          "internalType": "address",
          "name": "_token",
          "type": "address"
        }
      ],
      "name": "addAllowedToken",
      "outputs": [],
      "stateMutability": "nonpayable",
      "type": "function"
    },
    {
      "inputs": [
        {
          "internalType": "uint256",
          "name": "",
          "type": "uint256"
        }
      ],
      "name": "allowedToken",
      "outputs": [
        {
          "internalType": "address",
          "name": "",
          "type": "address"
        }
      ],
      "stateMutability": "view",
      "type": "function"
    },
    {
      "inputs": [
        {
          "internalType": "address",
          "name": "",
          "type": "address"
        }
      ],
      "name": "allowedToken_to_bool",
      "outputs": [
        {
          "internalType": "bool",
          "name": "",
          "type": "bool"
        }
      ],
      "stateMutability": "view",
      "type": "function"
    },
    {
      "inputs": [
        {
          "internalType": "address",
          "name": "_token",
          "type": "address"
        },
        {
          "internalType": "address",
          "name": "_user",
          "type": "address"
        }
      ],
      "name": "balanceOf",
      "outputs": [
        {
          "internalType": "uint256",
          "name": "",
          "type": "uint256"
        }
      ],
      "stateMutability": "view",
      "type": "function"
    },
    {
      "inputs": [
        {
          "internalType": "uint256",
          "name": "_id",
          "type": "uint256"
        }
      ],
      "name": "cancelOrder",
      "outputs": [],
      "stateMutability": "nonpayable",
      "type": "function"
    },
    {
      "inputs": [],
      "name": "depositEther",
      "outputs": [],
      "stateMutability": "payable",
      "type": "function"
    },
    {
      "inputs": [
        {
          "internalType": "address",
          "name": "_token",
          "type": "address"
        },
        {
          "internalType": "uint256",
          "name": "_amount",
          "type": "uint256"
        }
      ],
      "name": "depositToken",
      "outputs": [],
      "stateMutability": "nonpayable",
      "type": "function"
    },
    {
      "inputs": [
        {
          "internalType": "uint256",
          "name": "_id",
          "type": "uint256"
        }
      ],
      "name": "fillOrder",
      "outputs": [],
      "stateMutability": "nonpayable",
      "type": "function"
    },
    {
      "inputs": [
        {
          "internalType": "address",
          "name": "_staker",
          "type": "address"
        }
      ],
      "name": "getStakerTotalValue",
      "outputs": [
        {
          "internalType": "uint256",
          "name": "",
          "type": "uint256"
        }
      ],
      "stateMutability": "view",
      "type": "function"
    },
    {
      "inputs": [
        {
          "internalType": "address",
          "name": "_staker",
          "type": "address"
        },
        {
          "internalType": "address",
          "name": "_token",
          "type": "address"
        }
      ],
      "name": "getStakersSingleTokenValue",
      "outputs": [
        {
          "internalType": "uint256",
          "name": "",
          "type": "uint256"
        }
      ],
      "stateMutability": "view",
      "type": "function"
    },
    {
      "inputs": [
        {
          "internalType": "address",
          "name": "_token",
          "type": "address"
        }
      ],
      "name": "getTokenValue",
      "outputs": [
        {
          "internalType": "uint256",
          "name": "",
          "type": "uint256"
        },
        {
          "internalType": "uint256",
          "name": "",
          "type": "uint256"
        }
      ],
      "stateMutability": "view",
      "type": "function"
    },
    {
      "inputs": [
        {
          "internalType": "uint256",
          "name": "",
          "type": "uint256"
        }
      ],
      "name": "id_to_cancelOrder",
      "outputs": [
        {
          "internalType": "bool",
          "name": "",
          "type": "bool"
        }
      ],
      "stateMutability": "view",
      "type": "function"
    },
    {
      "inputs": [
        {
          "internalType": "uint256",
          "name": "",
          "type": "uint256"
        }
      ],
      "name": "id_to_fillOrder",
      "outputs": [
        {
          "internalType": "bool",
          "name": "",
          "type": "bool"
        }
      ],
      "stateMutability": "view",
      "type": "function"
    },
    {
      "inputs": [
        {
          "internalType": "uint256",
          "name": "",
          "type": "uint256"
        }
      ],
      "name": "id_to_order",
      "outputs": [
        {
          "internalType": "uint256",
          "name": "id",
          "type": "uint256"
        },
        {
          "internalType": "address",
          "name": "user",
          "type": "address"
        },
        {
          "internalType": "address",
          "name": "tokenGet",
          "type": "address"
        },
        {
          "internalType": "uint256",
          "name": "amountGet",
          "type": "uint256"
        },
        {
          "internalType": "address",
          "name": "tokenGive",
          "type": "address"
        },
        {
          "internalType": "uint256",
          "name": "amountGive",
          "type": "uint256"
        },
        {
          "internalType": "uint256",
          "name": "timestamp",
          "type": "uint256"
        }
      ],
      "stateMutability": "view",
      "type": "function"
    },
    {
      "inputs": [],
      "name": "issueToken",
      "outputs": [],
      "stateMutability": "nonpayable",
      "type": "function"
    },
    {
      "inputs": [],
      "name": "issueTokenAdvanced",
      "outputs": [
        {
          "internalType": "uint256",
          "name": "",
          "type": "uint256"
        }
      ],
      "stateMutability": "nonpayable",
      "type": "function"
    },
    {
      "inputs": [
        {
          "internalType": "address",
          "name": "_tokenGet",
          "type": "address"
        },
        {
          "internalType": "address",
          "name": "_tokenGive",
          "type": "address"
        },
        {
          "internalType": "uint256",
          "name": "_amountGive",
          "type": "uint256"
        }
      ],
      "name": "makeOrder",
      "outputs": [
        {
          "internalType": "uint256",
          "name": "",
          "type": "uint256"
        }
      ],
      "stateMutability": "nonpayable",
      "type": "function"
    },
    {
      "inputs": [],
      "name": "orderCounter",
      "outputs": [
        {
          "internalType": "uint256",
          "name": "",
          "type": "uint256"
        }
      ],
      "stateMutability": "view",
      "type": "function"
    },
    {
      "inputs": [],
      "name": "owner",
      "outputs": [
        {
          "internalType": "address",
          "name": "",
          "type": "address"
        }
      ],
      "stateMutability": "view",
      "type": "function"
    },
    {
      "inputs": [],
      "name": "renounceOwnership",
      "outputs": [],
      "stateMutability": "nonpayable",
      "type": "function"
    },
    {
      "inputs": [
        {
          "internalType": "address",
          "name": "_token",
          "type": "address"
        },
        {
          "internalType": "address",
          "name": "_priceFeedAddress",
          "type": "address"
        }
      ],
      "name": "setTokenPriceFeedMapping",
      "outputs": [],
      "stateMutability": "nonpayable",
      "type": "function"
    },
    {
      "inputs": [
        {
          "internalType": "address",
          "name": "_token",
          "type": "address"
        },
        {
          "internalType": "uint256",
          "name": "_amount",
          "type": "uint256"
        }
      ],
      "name": "stake",
      "outputs": [],
      "stateMutability": "nonpayable",
      "type": "function"
    },
    {
      "inputs": [
        {
          "internalType": "address",
          "name": "",
          "type": "address"
        }
      ],
      "name": "stakerToStakingOrder",
      "outputs": [
        {
          "internalType": "uint256",
          "name": "amount",
          "type": "uint256"
        },
        {
          "internalType": "uint256",
          "name": "timestamp",
          "type": "uint256"
        }
      ],
      "stateMutability": "view",
      "type": "function"
    },
    {
      "inputs": [
        {
          "internalType": "address",
          "name": "",
          "type": "address"
        }
      ],
      "name": "staker_uniqueTokenStaked",
      "outputs": [
        {
          "internalType": "uint256",
          "name": "",
          "type": "uint256"
        }
      ],
      "stateMutability": "view",
      "type": "function"
    },
    {
      "inputs": [
        {
          "internalType": "uint256",
          "name": "",
          "type": "uint256"
        }
      ],
      "name": "stakers",
      "outputs": [
        {
          "internalType": "address",
          "name": "",
          "type": "address"
        }
      ],
      "stateMutability": "view",
      "type": "function"
    },
    {
      "inputs": [
        {
          "internalType": "address",
          "name": "",
          "type": "address"
        }
      ],
      "name": "tokenPriceFeedMapping",
      "outputs": [
        {
          "internalType": "address",
          "name": "",
          "type": "address"
        }
      ],
      "stateMutability": "view",
      "type": "function"
    },
    {
      "inputs": [
        {
          "internalType": "address",
          "name": "",
          "type": "address"
        },
        {
          "internalType": "address",
          "name": "",
          "type": "address"
        }
      ],
      "name": "token_depositer_amount",
      "outputs": [
        {
          "internalType": "uint256",
          "name": "",
          "type": "uint256"
        }
      ],
      "stateMutability": "view",
      "type": "function"
    },
    {
      "inputs": [
        {
          "internalType": "address",
          "name": "",
          "type": "address"
        },
        {
          "internalType": "address",
          "name": "",
          "type": "address"
        }
      ],
      "name": "token_staker_amount",
      "outputs": [
        {
          "internalType": "uint256",
          "name": "",
          "type": "uint256"
        }
      ],
      "stateMutability": "view",
      "type": "function"
    },
    {
      "inputs": [
        {
          "internalType": "address",
          "name": "newOwner",
          "type": "address"
        }
      ],
      "name": "transferOwnership",
      "outputs": [],
      "stateMutability": "nonpayable",
      "type": "function"
    },
    {
      "inputs": [
        {
          "internalType": "address",
          "name": "_token",
          "type": "address"
        }
      ],
      "name": "unstakeTokens",
      "outputs": [],
      "stateMutability": "nonpayable",
      "type": "function"
    },
    {
      "inputs": [
        {
          "internalType": "uint256",
          "name": "_amount",
          "type": "uint256"
        }
      ],
      "name": "withdrawEther",
      "outputs": [],
      "stateMutability": "nonpayable",
      "type": "function"
    },
    {
      "inputs": [
        {
          "internalType": "address",
          "name": "_token",
          "type": "address"
        },
        {
          "internalType": "uint256",
          "name": "_amount",
          "type": "uint256"
        }
      ],
      "name": "withdrawToken",
      "outputs": [],
      "stateMutability": "nonpayable",
      "type": "function"
    }
  ],
  "bytecode": "608060405260006004553480156200001657600080fd5b50604051620024bf380380620024bf8339810160408190526200003991620001d9565b6200004433620000eb565b600180546001600160a01b038086166001600160a01b03199283161783556002858155600380549286169290931682179092556000818152600c60209081526040808320805460ff1990811688179091558380527f13649b2456f1b42fef0f0040b3aaeabcd21a76a0f3f5defd4f583839455116e88054909116909617909555845180860190955291845290830152620000e1916006916200013b565b505050506200021a565b600080546001600160a01b038381166001600160a01b0319831681178455604051919092169283917f8be0079c531659141344cd1fd0a4f28419497f9722a3daafe3b4186f6b6457e09190a35050565b82805482825590600052602060002090810192821562000193579160200282015b828111156200019357825182546001600160a01b0319166001600160a01b039091161782556020909201916001909101906200015c565b50620001a1929150620001a5565b5090565b5b80821115620001a15760008155600101620001a6565b80516001600160a01b0381168114620001d457600080fd5b919050565b600080600060608486031215620001ef57600080fd5b620001fa84620001bc565b9250602084015191506200021160408501620001bc565b90509250925092565b612295806200022a6000396000f3fe6080604052600436106101e35760003560e01c80638da5cb5b11610102578063c1a0d47f11610095578063f2fde38b11610064578063f2fde38b14610698578063f7888aec146106b8578063fa9b6f19146106d8578063fd5e6dd1146106f857600080fd5b8063c1a0d47f14610597578063e692588d14610643578063e907508014610658578063f1c5d6c21461067857600080fd5b8063adc9772e116100d1578063adc9772e146104f9578063b2ade87114610519578063b789bf5214610549578063b8ea1ebc1461055f57600080fd5b80638da5cb5b1461049e57806398ea5fca146104bc5780639e281a98146104c4578063a1ee8c78146104e457600080fd5b8063514fcac71161017a57806367b830ad1161014957806367b830ad14610419578063715018a6146104395780637e914dc91461044e57806388e849a21461046e57600080fd5b8063514fcac71461036157806351c78f4114610381578063595cc9f5146103c15780635eeb0a39146103f957600080fd5b80633e538e7e116101b65780633e538e7e1461029d578063403870b6146102e65780634178617f146103065780635041de441461032657600080fd5b806327927b3e146101e85780632d1ad8b81461023b578063338b5dea1461025d5780633bed33ce1461027d575b600080fd5b3480156101f457600080fd5b5061021e610203366004611e34565b600b602052600090815260409020546001600160a01b031681565b6040516001600160a01b0390911681526020015b60405180910390f35b34801561024757600080fd5b5061025b610256366004611e34565b610718565b005b34801561026957600080fd5b5061025b610278366004611e56565b610978565b34801561028957600080fd5b5061025b610298366004611e80565b610a94565b3480156102a957600080fd5b506102d16102b8366004611e34565b600f602052600090815260409020805460019091015482565b60408051928352602083019190915201610232565b3480156102f257600080fd5b5061021e610301366004611e80565b610b7d565b34801561031257600080fd5b5061025b610321366004611e34565b610ba7565b34801561033257600080fd5b50610353610341366004611e34565b600d6020526000908152604090205481565b604051908152602001610232565b34801561036d57600080fd5b5061025b61037c366004611e80565b610c37565b34801561038d57600080fd5b506103b161039c366004611e80565b600a6020526000908152604090205460ff1681565b6040519015158152602001610232565b3480156103cd57600080fd5b506103536103dc366004611e99565b600e60209081526000928352604080842090915290825290205481565b34801561040557600080fd5b50610353610414366004611ecc565b610d1c565b34801561042557600080fd5b5061025b610434366004611e80565b610f4b565b34801561044557600080fd5b5061025b61126f565b34801561045a57600080fd5b5061025b610469366004611e99565b6112a5565b34801561047a57600080fd5b506103b1610489366004611e34565b600c6020526000908152604090205460ff1681565b3480156104aa57600080fd5b506000546001600160a01b031661021e565b61025b6112fd565b3480156104d057600080fd5b5061025b6104df366004611e56565b611385565b3480156104f057600080fd5b5061025b6114d6565b34801561050557600080fd5b5061025b610514366004611e56565b61162c565b34801561052557600080fd5b506103b1610534366004611e80565b60096020526000908152604090205460ff1681565b34801561055557600080fd5b5061035360045481565b34801561056b57600080fd5b5061035361057a366004611e99565b600760209081526000928352604080842090915290825290205481565b3480156105a357600080fd5b506105fd6105b2366004611e80565b600860205260009081526040902080546001820154600283015460038401546004850154600586015460069096015494956001600160a01b0394851695938516949293929091169187565b604080519788526001600160a01b039687166020890152948616948701949094526060860192909252909216608084015260a083019190915260c082015260e001610232565b34801561064f57600080fd5b5061035361185f565b34801561066457600080fd5b50610353610673366004611e34565b611a2e565b34801561068457600080fd5b506102d1610693366004611e34565b611b1d565b3480156106a457600080fd5b5061025b6106b3366004611e34565b611c1e565b3480156106c457600080fd5b506103536106d3366004611e99565b611cb6565b3480156106e457600080fd5b506103536106f3366004611e99565b611ce3565b34801561070457600080fd5b5061021e610713366004611e80565b611d78565b6001600160a01b0381166000908152600e60209081526040808320338452909152902054806107985760405162461bcd60e51b815260206004820152602160248201527f596f7520646f6e2774206861766520546f6b656e7320746f20756e7374616b656044820152601760f91b60648201526084015b60405180910390fd5b6107a061185f565b50336000908152600d60205260409020546107bd90600190611f1e565b336000818152600d60209081526040808320949094556001600160a01b038616808352600e8252848320848452825284832083905582526007815283822092825291909152205461080f908290611f35565b6001600160a01b0383166000908152600760209081526040808320338452825280832093909355600d905220546109475760005b60055481101561094557336001600160a01b03166005828154811061086a5761086a611f4d565b6000918252602090912001546001600160a01b03161415610933576005805461089590600190611f1e565b815481106108a5576108a5611f4d565b600091825260209091200154600580546001600160a01b0390921691839081106108d1576108d1611f4d565b9060005260206000200160006101000a8154816001600160a01b0302191690836001600160a01b03160217905550600580548061091057610910611f63565b600082815260209020810160001990810180546001600160a01b03191690550190555b8061093d81611f79565b915050610843565b505b505060408051808201825260008082526020808301828152338352600f909152929020905181559051600190910155565b6040516323b872dd60e01b8152336004820152306024820152604481018290526001600160a01b038316906323b872dd906064016020604051808303816000875af11580156109cb573d6000803e3d6000fd5b505050506040513d601f19601f820116820180604052508101906109ef9190611f94565b6109f857600080fd5b6001600160a01b0382166000908152600760209081526040808320338452909152902054610a27908290611f35565b6001600160a01b038316600081815260076020908152604080832033808552908352928190209490945583519283528201849052918101919091527fb4e1304f97b5093610f51b33ddab6622388422e2dac138b0d32f93dcfbd39edf906060015b60405180910390a15050565b3360009081526000805160206122408339815191526020526040902054811115610abd57600080fd5b6040513390819083156108fc029084906000818181858888f19350505050158015610aec573d6000803e3d6000fd5b503360009081526000805160206122408339815191526020526040902054610b15908390611f1e565b336000908152600080516020612240833981519152602090815260408083209390935582516001600160a01b0385168152908101919091529081018390527f9b1bfa7fa9ee420a16e124f794c35ac9f90472acc99140eb2f6447c714cad8eb90606001610a88565b60068181548110610b8d57600080fd5b6000918252602090912001546001600160a01b0316905081565b6000546001600160a01b03163314610bd15760405162461bcd60e51b815260040161078f90611fb6565b6001600160a01b03166000818152600c60205260408120805460ff191660019081179091556006805491820181559091527ff652222313e28459528d920b65115c16c04f3efc82aaedc97be59f3f377c0d3f0180546001600160a01b0319169091179055565b6000818152600a602052604090205460ff16151560011415610c5857600080fd5b600081815260086020526040902060018101546001600160a01b03163314610cd35760405162461bcd60e51b815260206004820152602860248201527f596f752063616e206e6f742063616e63656c20736f6d656f6e6520656c736527604482015267399037b93232b91760c11b606482015260840161078f565b60008281526009602052604090819020805460ff19166001179055517f3a470524f9ac65ca647d31de29c54a8f8e1ac4117abf0c03161cbf5036f626f890610a88908390611feb565b6001600160a01b0382166000908152600760209081526040808320338452909152812054821115610db55760405162461bcd60e51b815260206004820152603760248201527f596f75206e65656420746f20686176652062616c616e636520696e207468652060448201527f65786368616e676520746f206d616b65206f726465722e000000000000000000606482015260840161078f565b600080610dc185611b1d565b90925090506000610dd382600a612124565b610ddd9084612130565b610de79086612152565b90506004546001610df89190611f35565b60048181556040805160e0810182528381523360208083019182526001600160a01b038d8116848601908152606085018981528e83166080870190815260a087018f81524260c0890190815260009b8c526008909652998890208751815595516001870180549186166001600160a01b03199283161790559251600287018054918616918516919091179055905160038601555196840180549790921696169590951790945593516005850155915160069093019290925590517f406b4bbaedb873d044998f2837cad2f86aecdb1d1452869c74d2b308d98f7a2290610f38908390600060e08201905082518252602083015160018060a01b03808216602085015280604086015116604085015260608501516060850152806080860151166080850152505060a083015160a083015260c083015160c083015292915050565b60405180910390a1509695505050505050565b6000818152600a602052604090205460ff16151560011415610faf5760405162461bcd60e51b815260206004820152601c60248201527f546865204f726465722068617320616c72656164792066696c6c656400000000604482015260640161078f565b60008181526009602052604090205460ff1615156001141561102b5760405162461bcd60e51b815260206004820152602f60248201527f546865204f7264657220686173206265656e2063616e63656c6564206279207460448201526e34329037b93232b91037bbb732b91760891b606482015260840161078f565b6000818152600860205260408120600254600582015491929160649161105091612152565b61105a9190612130565b905080826005015461106c9190611f35565b60048301546001600160a01b0390811660009081526007602090815260408083206001880154909416835292905220546110a69190611f1e565b6004830180546001600160a01b03908116600090815260076020818152604080842060018a015486168552825280842096909655600588015494549093168252825283812033825290915291909120546111009190611f35565b60048301546001600160a01b039081166000908152600760208181526040808420338086529083528185209690965560038801546002890154909516845291815281832094835293909352919091205461115a9190611f1e565b6002830180546001600160a01b0390811660009081526007602081815260408084203385528252808420969096556003880154945484168352908152848220600188015490931682529190915291909120546111b69190611f35565b60028301546001600160a01b0390811660009081526007602081815260408084206001808a0154871686529083528185209690965560048801548516845291815281832085549094168352928352808220859055868252600a8352808220805460ff19908116861790915560099093529081902080549092169092179055517fdc2be07770e51c83d921e50c8b82e389ef7579bf58467ebb3ad0d4d781029fc890611262908490611feb565b60405180910390a1505050565b6000546001600160a01b031633146112995760405162461bcd60e51b815260040161078f90611fb6565b6112a36000611d88565b565b6000546001600160a01b031633146112cf5760405162461bcd60e51b815260040161078f90611fb6565b6001600160a01b039182166000908152600b6020526040902080546001600160a01b03191691909216179055565b3360009081526000805160206122408339815191526020526040902054611325903490611f35565b336000818152600080516020612240833981519152602090815260408083209490945583519182523490820152918201527fb4e1304f97b5093610f51b33ddab6622388422e2dac138b0d32f93dcfbd39edf9060600160405180910390a1565b6001600160a01b03821661139857600080fd5b6001600160a01b03821660009081526007602090815260408083203384529091529020548111156113c857600080fd5b60405163a9059cbb60e01b8152336004820152602481018290526001600160a01b0383169063a9059cbb906044016020604051808303816000875af1158015611415573d6000803e3d6000fd5b505050506040513d601f19601f820116820180604052508101906114399190611f94565b61144257600080fd5b6001600160a01b0382166000908152600760209081526040808320338452909152902054611471908290611f1e565b6001600160a01b038316600081815260076020908152604080832033808552908352928190209490945583519182528101919091529081018290527f9b1bfa7fa9ee420a16e124f794c35ac9f90472acc99140eb2f6447c714cad8eb90606001610a88565b6000546001600160a01b031633146115005760405162461bcd60e51b815260040161078f90611fb6565b60005b6005548110156116295760006005828154811061152257611522611f4d565b60009182526020822001546002546001600160a01b03909116925060649061154984611a2e565b6115539190612152565b61155d9190612130565b6003546001600160a01b03908116600090815260076020908152604080832060015490941683529290522054909150611597908290611f1e565b600380546001600160a01b0390811660009081526007602081815260408084206001548616855282528084209690965593548316825283528381209186168152915220546115e6908290611f35565b6003546001600160a01b0390811660009081526007602090815260408083209690931682529490945290922091909155508061162181611f79565b915050611503565b50565b60006116388333611cb6565b6001600160a01b0384166000908152600c602052604090205490915060ff166116a35760405162461bcd60e51b815260206004820152601760248201527f5468697320546f6b656e206e6f7420616c6c6f7765642e000000000000000000604482015260640161078f565b818110156116e05760405162461bcd60e51b815260206004820152600a6024820152692732b2b21036b7b9329760b11b604482015260640161078f565b336000908152600d602052604090205415611703576116fd61185f565b50611746565b600580546001810182556000919091527f036b6384b5eca791c62761152d0c79bb0604c104a5fb6f4eb0703f3154bb3db00180546001600160a01b031916331790555b61174f33611dd8565b60006064600254846117619190612152565b61176b9190612130565b90506117778184611f35565b6001600160a01b03851660009081526007602090815260408083203384529091529020546117a59190611f1e565b6001600160a01b03851660008181526007602090815260408083203380855290835281842095909555928252600e8152828220938252929092529020546117ed908490611f35565b6001600160a01b039485166000818152600e60209081526040808320338085529083528184209586559383526007825280832060018054909a168452825280832095909555845180860186529354845242848201908152928252600f9052929092209051815590519301929092555050565b336000908152600d60205260408120546118c75760405162461bcd60e51b8152602060048201526024808201527f596f7520646f6e2774206861766520616e7920746f6b656e207374616b6564206044820152637965742160e01b606482015260840161078f565b336000908152600f60205260409020805461191c5760405162461bcd60e51b81526020600482015260156024820152742737ba1032b737bab3b4103932b9b7bab931b2b99760591b604482015260640161078f565b600081600101544261192e9190611f1e565b82546119409064e8d4a5100090612130565b61194a9190612152565b6003546001600160a01b03908116600090815260076020908152604080832060015490941683529290522054909150611984908290611f1e565b600380546001600160a01b039081166000908152600760208181526040808420600154861685528252808420969096559354909216815290825282812033825290915220546119d4908290611f35565b6003546001600160a01b031660009081526007602090815260408083203380855290835281842094909455805180820182529554865242868301908152938352600f90915290209251835551600190920191909155919050565b6001600160a01b0381166000908152600d60205260408120548190611a655760405162461bcd60e51b815260040161078f90612171565b60005b600654811015611b16576000600e600060068481548110611a8b57611a8b611f4d565b60009182526020808320909101546001600160a01b03908116845283820194909452604092830182209389168252929092529020541115611b0457611af78460068381548110611add57611add611f4d565b6000918252602090912001546001600160a01b0316611ce3565b611b019083611f35565b91505b80611b0e81611f79565b915050611a68565b5092915050565b6001600160a01b038082166000908152600b6020526040808220548151633fabe5a360e21b815291519293849391169182918491839163feaf968c9160048082019260a0929091908290030181865afa158015611b7e573d6000803e3d6000fd5b505050506040513d601f19601f82011682018060405250810190611ba291906121cc565b5050509150506000826001600160a01b031663313ce5676040518163ffffffff1660e01b8152600401602060405180830381865afa158015611be8573d6000803e3d6000fd5b505050506040513d601f19601f82011682018060405250810190611c0c919061221c565b919760ff909216965090945050505050565b6000546001600160a01b03163314611c485760405162461bcd60e51b815260040161078f90611fb6565b6001600160a01b038116611cad5760405162461bcd60e51b815260206004820152602660248201527f4f776e61626c653a206e6577206f776e657220697320746865207a65726f206160448201526564647265737360d01b606482015260840161078f565b61162981611d88565b6001600160a01b038083166000908152600760209081526040808320938516835292905220545b92915050565b6001600160a01b0382166000908152600d6020526040812054611d185760405162461bcd60e51b815260040161078f90612171565b600080611d2484611b1d565b9092509050611d3481600a612124565b6001600160a01b038086166000908152600e60209081526040808320938a1683529290522054611d65908490612152565b611d6f9190612130565b95945050505050565b60058181548110610b8d57600080fd5b600080546001600160a01b038381166001600160a01b0319831681178455604051919092169283917f8be0079c531659141344cd1fd0a4f28419497f9722a3daafe3b4186f6b6457e09190a35050565b6001600160a01b0381166000908152600d6020526040902054611dfc906001611f35565b6001600160a01b039091166000908152600d6020526040902055565b80356001600160a01b0381168114611e2f57600080fd5b919050565b600060208284031215611e4657600080fd5b611e4f82611e18565b9392505050565b60008060408385031215611e6957600080fd5b611e7283611e18565b946020939093013593505050565b600060208284031215611e9257600080fd5b5035919050565b60008060408385031215611eac57600080fd5b611eb583611e18565b9150611ec360208401611e18565b90509250929050565b600080600060608486031215611ee157600080fd5b611eea84611e18565b9250611ef860208501611e18565b9150604084013590509250925092565b634e487b7160e01b600052601160045260246000fd5b600082821015611f3057611f30611f08565b500390565b60008219821115611f4857611f48611f08565b500190565b634e487b7160e01b600052603260045260246000fd5b634e487b7160e01b600052603160045260246000fd5b6000600019821415611f8d57611f8d611f08565b5060010190565b600060208284031215611fa657600080fd5b81518015158114611e4f57600080fd5b6020808252818101527f4f776e61626c653a2063616c6c6572206973206e6f7420746865206f776e6572604082015260600190565b8154815260018201546001600160a01b039081166020830152600283015481166040830152600383015460608301526004830154166080820152600582015460a082015260069091015460c082015260e00190565b600181815b8085111561207b57816000190482111561206157612061611f08565b8085161561206e57918102915b93841c9390800290612045565b509250929050565b60008261209257506001611cdd565b8161209f57506000611cdd565b81600181146120b557600281146120bf576120db565b6001915050611cdd565b60ff8411156120d0576120d0611f08565b50506001821b611cdd565b5060208310610133831016604e8410600b84101617156120fe575081810a611cdd565b6121088383612040565b806000190482111561211c5761211c611f08565b029392505050565b6000611e4f8383612083565b60008261214d57634e487b7160e01b600052601260045260246000fd5b500490565b600081600019048311821515161561216c5761216c611f08565b500290565b60208082526021908201527f5573657220646f6e2774206861766520616e792076616c7565207374616b65646040820152601760f91b606082015260800190565b805169ffffffffffffffffffff81168114611e2f57600080fd5b600080600080600060a086880312156121e457600080fd5b6121ed866121b2565b9450602086015193506040860151925060608601519150612210608087016121b2565b90509295509295909350565b60006020828403121561222e57600080fd5b815160ff81168114611e4f57600080fdfe6d5257204ebe7d88fd91ae87941cb2dd9d8062b64ae5a2bd2d28ec40b9fbf6dfa26469706673582212200377b8df171532c8538267f812a0b68a726ad6c960ef06702b14d39dbd6c883f64736f6c634300080c0033",
  "bytecodeSha1": "6b61b29405502e97a002cf62a6ba8fcaf0900b11",
  "compiler": {
    "evm_version": "istanbul",
    "optimizer": {
      "enabled": true,
      "runs": 200
    },
    "version": "0.8.12+commit.f00d7308"
  },
  "contractName": "Exchange",
  "language": "Solidity",
  "natspec": {
    "kind": "dev",
    "methods": {
      "owner()": {
        "details": "Returns the address of the current owner."
      },
      "renounceOwnership()": {
        "details": "Leaves the contract without owner. It will not be possible to call `onlyOwner` functions anymore. Can only be called by the current owner. NOTE: Renouncing ownership will leave the contract without an owner, thereby removing any functionality that is only available to the owner."
      },
      "transferOwnership(address)": {
        "details": "Transfers ownership of the contract to a new account (`newOwner`). Can only be called by the current owner."
      }
    },
    "version": 1
  },
  "opcodes": "PUSH1 0x80 PUSH1 0x40 MSTORE PUSH1 0x4 CALLDATASIZE LT PUSH2 0x1E3 JUMPI PUSH1 0x0 CALLDATALOAD PUSH1 0xE0 SHR DUP1 PUSH4 0x8DA5CB5B GT PUSH2 0x102 JUMPI DUP1 PUSH4 0xC1A0D47F GT PUSH2 0x95 JUMPI DUP1 PUSH4 0xF2FDE38B GT PUSH2 0x64 JUMPI DUP1 PUSH4 0xF2FDE38B EQ PUSH2 0x698 JUMPI DUP1 PUSH4 0xF7888AEC EQ PUSH2 0x6B8 JUMPI DUP1 PUSH4 0xFA9B6F19 EQ PUSH2 0x6D8 JUMPI DUP1 PUSH4 0xFD5E6DD1 EQ PUSH2 0x6F8 JUMPI PUSH1 0x0 DUP1 REVERT JUMPDEST DUP1 PUSH4 0xC1A0D47F EQ PUSH2 0x597 JUMPI DUP1 PUSH4 0xE692588D EQ PUSH2 0x643 JUMPI DUP1 PUSH4 0xE9075080 EQ PUSH2 0x658 JUMPI DUP1 PUSH4 0xF1C5D6C2 EQ PUSH2 0x678 JUMPI PUSH1 0x0 DUP1 REVERT JUMPDEST DUP1 PUSH4 0xADC9772E GT PUSH2 0xD1 JUMPI DUP1 PUSH4 0xADC9772E EQ PUSH2 0x4F9 JUMPI DUP1 PUSH4 0xB2ADE871 EQ PUSH2 0x519 JUMPI DUP1 PUSH4 0xB789BF52 EQ PUSH2 0x549 JUMPI DUP1 PUSH4 0xB8EA1EBC EQ PUSH2 0x55F JUMPI PUSH1 0x0 DUP1 REVERT JUMPDEST DUP1 PUSH4 0x8DA5CB5B EQ PUSH2 0x49E JUMPI DUP1 PUSH4 0x98EA5FCA EQ PUSH2 0x4BC JUMPI DUP1 PUSH4 0x9E281A98 EQ PUSH2 0x4C4 JUMPI DUP1 PUSH4 0xA1EE8C78 EQ PUSH2 0x4E4 JUMPI PUSH1 0x0 DUP1 REVERT JUMPDEST DUP1 PUSH4 0x514FCAC7 GT PUSH2 0x17A JUMPI DUP1 PUSH4 0x67B830AD GT PUSH2 0x149 JUMPI DUP1 PUSH4 0x67B830AD EQ PUSH2 0x419 JUMPI DUP1 PUSH4 0x715018A6 EQ PUSH2 0x439 JUMPI DUP1 PUSH4 0x7E914DC9 EQ PUSH2 0x44E JUMPI DUP1 PUSH4 0x88E849A2 EQ PUSH2 0x46E JUMPI PUSH1 0x0 DUP1 REVERT JUMPDEST DUP1 PUSH4 0x514FCAC7 EQ PUSH2 0x361 JUMPI DUP1 PUSH4 0x51C78F41 EQ PUSH2 0x381 JUMPI DUP1 PUSH4 0x595CC9F5 EQ PUSH2 0x3C1 JUMPI DUP1 PUSH4 0x5EEB0A39 EQ PUSH2 0x3F9 JUMPI PUSH1 0x0 DUP1 REVERT JUMPDEST DUP1 PUSH4 0x3E538E7E GT PUSH2 0x1B6 JUMPI DUP1 PUSH4 0x3E538E7E EQ PUSH2 0x29D JUMPI DUP1 PUSH4 0x403870B6 EQ PUSH2 0x2E6 JUMPI DUP1 PUSH4 0x4178617F EQ PUSH2 0x306 JUMPI DUP1 PUSH4 0x5041DE44 EQ PUSH2 0x326 JUMPI PUSH1 0x0 DUP1 REVERT JUMPDEST DUP1 PUSH4 0x27927B3E EQ PUSH2 0x1E8 JUMPI DUP1 PUSH4 0x2D1AD8B8 EQ PUSH2 0x23B JUMPI DUP1 PUSH4 0x338B5DEA EQ PUSH2 0x25D JUMPI DUP1 PUSH4 0x3BED33CE EQ PUSH2 0x27D JUMPI JUMPDEST PUSH1 0x0 DUP1 REVERT JUMPDEST CALLVALUE DUP1 ISZERO PUSH2 0x1F4 JUMPI PUSH1 0x0 DUP1 REVERT JUMPDEST POP PUSH2 0x21E PUSH2 0x203 CALLDATASIZE PUSH1 0x4 PUSH2 0x1E34 JUMP JUMPDEST PUSH1 0xB PUSH1 0x20 MSTORE PUSH1 0x0 SWAP1 DUP2 MSTORE PUSH1 0x40 SWAP1 KECCAK256 SLOAD PUSH1 0x1 PUSH1 0x1 PUSH1 0xA0 SHL SUB AND DUP2 JUMP JUMPDEST PUSH1 0x40 MLOAD PUSH1 0x1 PUSH1 0x1 PUSH1 0xA0 SHL SUB SWAP1 SWAP2 AND DUP2 MSTORE PUSH1 0x20 ADD JUMPDEST PUSH1 0x40 MLOAD DUP1 SWAP2 SUB SWAP1 RETURN JUMPDEST CALLVALUE DUP1 ISZERO PUSH2 0x247 JUMPI PUSH1 0x0 DUP1 REVERT JUMPDEST POP PUSH2 0x25B PUSH2 0x256 CALLDATASIZE PUSH1 0x4 PUSH2 0x1E34 JUMP JUMPDEST PUSH2 0x718 JUMP JUMPDEST STOP JUMPDEST CALLVALUE DUP1 ISZERO PUSH2 0x269 JUMPI PUSH1 0x0 DUP1 REVERT JUMPDEST POP PUSH2 0x25B PUSH2 0x278 CALLDATASIZE PUSH1 0x4 PUSH2 0x1E56 JUMP JUMPDEST PUSH2 0x978 JUMP JUMPDEST CALLVALUE DUP1 ISZERO PUSH2 0x289 JUMPI PUSH1 0x0 DUP1 REVERT JUMPDEST POP PUSH2 0x25B PUSH2 0x298 CALLDATASIZE PUSH1 0x4 PUSH2 0x1E80 JUMP JUMPDEST PUSH2 0xA94 JUMP JUMPDEST CALLVALUE DUP1 ISZERO PUSH2 0x2A9 JUMPI PUSH1 0x0 DUP1 REVERT JUMPDEST POP PUSH2 0x2D1 PUSH2 0x2B8 CALLDATASIZE PUSH1 0x4 PUSH2 0x1E34 JUMP JUMPDEST PUSH1 0xF PUSH1 0x20 MSTORE PUSH1 0x0 SWAP1 DUP2 MSTORE PUSH1 0x40 SWAP1 KECCAK256 DUP1 SLOAD PUSH1 0x1 SWAP1 SWAP2 ADD SLOAD DUP3 JUMP JUMPDEST PUSH1 0x40 DUP1 MLOAD SWAP3 DUP4 MSTORE PUSH1 0x20 DUP4 ADD SWAP2 SWAP1 SWAP2 MSTORE ADD PUSH2 0x232 JUMP JUMPDEST CALLVALUE DUP1 ISZERO PUSH2 0x2F2 JUMPI PUSH1 0x0 DUP1 REVERT JUMPDEST POP PUSH2 0x21E PUSH2 0x301 CALLDATASIZE PUSH1 0x4 PUSH2 0x1E80 JUMP JUMPDEST PUSH2 0xB7D JUMP JUMPDEST CALLVALUE DUP1 ISZERO PUSH2 0x312 JUMPI PUSH1 0x0 DUP1 REVERT JUMPDEST POP PUSH2 0x25B PUSH2 0x321 CALLDATASIZE PUSH1 0x4 PUSH2 0x1E34 JUMP JUMPDEST PUSH2 0xBA7 JUMP JUMPDEST CALLVALUE DUP1 ISZERO PUSH2 0x332 JUMPI PUSH1 0x0 DUP1 REVERT JUMPDEST POP PUSH2 0x353 PUSH2 0x341 CALLDATASIZE PUSH1 0x4 PUSH2 0x1E34 JUMP JUMPDEST PUSH1 0xD PUSH1 0x20 MSTORE PUSH1 0x0 SWAP1 DUP2 MSTORE PUSH1 0x40 SWAP1 KECCAK256 SLOAD DUP2 JUMP JUMPDEST PUSH1 0x40 MLOAD SWAP1 DUP2 MSTORE PUSH1 0x20 ADD PUSH2 0x232 JUMP JUMPDEST CALLVALUE DUP1 ISZERO PUSH2 0x36D JUMPI PUSH1 0x0 DUP1 REVERT JUMPDEST POP PUSH2 0x25B PUSH2 0x37C CALLDATASIZE PUSH1 0x4 PUSH2 0x1E80 JUMP JUMPDEST PUSH2 0xC37 JUMP JUMPDEST CALLVALUE DUP1 ISZERO PUSH2 0x38D JUMPI PUSH1 0x0 DUP1 REVERT JUMPDEST POP PUSH2 0x3B1 PUSH2 0x39C CALLDATASIZE PUSH1 0x4 PUSH2 0x1E80 JUMP JUMPDEST PUSH1 0xA PUSH1 0x20 MSTORE PUSH1 0x0 SWAP1 DUP2 MSTORE PUSH1 0x40 SWAP1 KECCAK256 SLOAD PUSH1 0xFF AND DUP2 JUMP JUMPDEST PUSH1 0x40 MLOAD SWAP1 ISZERO ISZERO DUP2 MSTORE PUSH1 0x20 ADD PUSH2 0x232 JUMP JUMPDEST CALLVALUE DUP1 ISZERO PUSH2 0x3CD JUMPI PUSH1 0x0 DUP1 REVERT JUMPDEST POP PUSH2 0x353 PUSH2 0x3DC CALLDATASIZE PUSH1 0x4 PUSH2 0x1E99 JUMP JUMPDEST PUSH1 0xE PUSH1 0x20 SWAP1 DUP2 MSTORE PUSH1 0x0 SWAP3 DUP4 MSTORE PUSH1 0x40 DUP1 DUP5 KECCAK256 SWAP1 SWAP2 MSTORE SWAP1 DUP3 MSTORE SWAP1 KECCAK256 SLOAD DUP2 JUMP JUMPDEST CALLVALUE DUP1 ISZERO PUSH2 0x405 JUMPI PUSH1 0x0 DUP1 REVERT JUMPDEST POP PUSH2 0x353 PUSH2 0x414 CALLDATASIZE PUSH1 0x4 PUSH2 0x1ECC JUMP JUMPDEST PUSH2 0xD1C JUMP JUMPDEST CALLVALUE DUP1 ISZERO PUSH2 0x425 JUMPI PUSH1 0x0 DUP1 REVERT JUMPDEST POP PUSH2 0x25B PUSH2 0x434 CALLDATASIZE PUSH1 0x4 PUSH2 0x1E80 JUMP JUMPDEST PUSH2 0xF4B JUMP JUMPDEST CALLVALUE DUP1 ISZERO PUSH2 0x445 JUMPI PUSH1 0x0 DUP1 REVERT JUMPDEST POP PUSH2 0x25B PUSH2 0x126F JUMP JUMPDEST CALLVALUE DUP1 ISZERO PUSH2 0x45A JUMPI PUSH1 0x0 DUP1 REVERT JUMPDEST POP PUSH2 0x25B PUSH2 0x469 CALLDATASIZE PUSH1 0x4 PUSH2 0x1E99 JUMP JUMPDEST PUSH2 0x12A5 JUMP JUMPDEST CALLVALUE DUP1 ISZERO PUSH2 0x47A JUMPI PUSH1 0x0 DUP1 REVERT JUMPDEST POP PUSH2 0x3B1 PUSH2 0x489 CALLDATASIZE PUSH1 0x4 PUSH2 0x1E34 JUMP JUMPDEST PUSH1 0xC PUSH1 0x20 MSTORE PUSH1 0x0 SWAP1 DUP2 MSTORE PUSH1 0x40 SWAP1 KECCAK256 SLOAD PUSH1 0xFF AND DUP2 JUMP JUMPDEST CALLVALUE DUP1 ISZERO PUSH2 0x4AA JUMPI PUSH1 0x0 DUP1 REVERT JUMPDEST POP PUSH1 0x0 SLOAD PUSH1 0x1 PUSH1 0x1 PUSH1 0xA0 SHL SUB AND PUSH2 0x21E JUMP JUMPDEST PUSH2 0x25B PUSH2 0x12FD JUMP JUMPDEST CALLVALUE DUP1 ISZERO PUSH2 0x4D0 JUMPI PUSH1 0x0 DUP1 REVERT JUMPDEST POP PUSH2 0x25B PUSH2 0x4DF CALLDATASIZE PUSH1 0x4 PUSH2 0x1E56 JUMP JUMPDEST PUSH2 0x1385 JUMP JUMPDEST CALLVALUE DUP1 ISZERO PUSH2 0x4F0 JUMPI PUSH1 0x0 DUP1 REVERT JUMPDEST POP PUSH2 0x25B PUSH2 0x14D6 JUMP JUMPDEST CALLVALUE DUP1 ISZERO PUSH2 0x505 JUMPI PUSH1 0x0 DUP1 REVERT JUMPDEST POP PUSH2 0x25B PUSH2 0x514 CALLDATASIZE PUSH1 0x4 PUSH2 0x1E56 JUMP JUMPDEST PUSH2 0x162C JUMP JUMPDEST CALLVALUE DUP1 ISZERO PUSH2 0x525 JUMPI PUSH1 0x0 DUP1 REVERT JUMPDEST POP PUSH2 0x3B1 PUSH2 0x534 CALLDATASIZE PUSH1 0x4 PUSH2 0x1E80 JUMP JUMPDEST PUSH1 0x9 PUSH1 0x20 MSTORE PUSH1 0x0 SWAP1 DUP2 MSTORE PUSH1 0x40 SWAP1 KECCAK256 SLOAD PUSH1 0xFF AND DUP2 JUMP JUMPDEST CALLVALUE DUP1 ISZERO PUSH2 0x555 JUMPI PUSH1 0x0 DUP1 REVERT JUMPDEST POP PUSH2 0x353 PUSH1 0x4 SLOAD DUP2 JUMP JUMPDEST CALLVALUE DUP1 ISZERO PUSH2 0x56B JUMPI PUSH1 0x0 DUP1 REVERT JUMPDEST POP PUSH2 0x353 PUSH2 0x57A CALLDATASIZE PUSH1 0x4 PUSH2 0x1E99 JUMP JUMPDEST PUSH1 0x7 PUSH1 0x20 SWAP1 DUP2 MSTORE PUSH1 0x0 SWAP3 DUP4 MSTORE PUSH1 0x40 DUP1 DUP5 KECCAK256 SWAP1 SWAP2 MSTORE SWAP1 DUP3 MSTORE SWAP1 KECCAK256 SLOAD DUP2 JUMP JUMPDEST CALLVALUE DUP1 ISZERO PUSH2 0x5A3 JUMPI PUSH1 0x0 DUP1 REVERT JUMPDEST POP PUSH2 0x5FD PUSH2 0x5B2 CALLDATASIZE PUSH1 0x4 PUSH2 0x1E80 JUMP JUMPDEST PUSH1 0x8 PUSH1 0x20 MSTORE PUSH1 0x0 SWAP1 DUP2 MSTORE PUSH1 0x40 SWAP1 KECCAK256 DUP1 SLOAD PUSH1 0x1 DUP3 ADD SLOAD PUSH1 0x2 DUP4 ADD SLOAD PUSH1 0x3 DUP5 ADD SLOAD PUSH1 0x4 DUP6 ADD SLOAD PUSH1 0x5 DUP7 ADD SLOAD PUSH1 0x6 SWAP1 SWAP7 ADD SLOAD SWAP5 SWAP6 PUSH1 0x1 PUSH1 0x1 PUSH1 0xA0 SHL SUB SWAP5 DUP6 AND SWAP6 SWAP4 DUP6 AND SWAP5 SWAP3 SWAP4 SWAP3 SWAP1 SWAP2 AND SWAP2 DUP8 JUMP JUMPDEST PUSH1 0x40 DUP1 MLOAD SWAP8 DUP9 MSTORE PUSH1 0x1 PUSH1 0x1 PUSH1 0xA0 SHL SUB SWAP7 DUP8 AND PUSH1 0x20 DUP10 ADD MSTORE SWAP5 DUP7 AND SWAP5 DUP8 ADD SWAP5 SWAP1 SWAP5 MSTORE PUSH1 0x60 DUP7 ADD SWAP3 SWAP1 SWAP3 MSTORE SWAP1 SWAP3 AND PUSH1 0x80 DUP5 ADD MSTORE PUSH1 0xA0 DUP4 ADD SWAP2 SWAP1 SWAP2 MSTORE PUSH1 0xC0 DUP3 ADD MSTORE PUSH1 0xE0 ADD PUSH2 0x232 JUMP JUMPDEST CALLVALUE DUP1 ISZERO PUSH2 0x64F JUMPI PUSH1 0x0 DUP1 REVERT JUMPDEST POP PUSH2 0x353 PUSH2 0x185F JUMP JUMPDEST CALLVALUE DUP1 ISZERO PUSH2 0x664 JUMPI PUSH1 0x0 DUP1 REVERT JUMPDEST POP PUSH2 0x353 PUSH2 0x673 CALLDATASIZE PUSH1 0x4 PUSH2 0x1E34 JUMP JUMPDEST PUSH2 0x1A2E JUMP JUMPDEST CALLVALUE DUP1 ISZERO PUSH2 0x684 JUMPI PUSH1 0x0 DUP1 REVERT JUMPDEST POP PUSH2 0x2D1 PUSH2 0x693 CALLDATASIZE PUSH1 0x4 PUSH2 0x1E34 JUMP JUMPDEST PUSH2 0x1B1D JUMP JUMPDEST CALLVALUE DUP1 ISZERO PUSH2 0x6A4 JUMPI PUSH1 0x0 DUP1 REVERT JUMPDEST POP PUSH2 0x25B PUSH2 0x6B3 CALLDATASIZE PUSH1 0x4 PUSH2 0x1E34 JUMP JUMPDEST PUSH2 0x1C1E JUMP JUMPDEST CALLVALUE DUP1 ISZERO PUSH2 0x6C4 JUMPI PUSH1 0x0 DUP1 REVERT JUMPDEST POP PUSH2 0x353 PUSH2 0x6D3 CALLDATASIZE PUSH1 0x4 PUSH2 0x1E99 JUMP JUMPDEST PUSH2 0x1CB6 JUMP JUMPDEST CALLVALUE DUP1 ISZERO PUSH2 0x6E4 JUMPI PUSH1 0x0 DUP1 REVERT JUMPDEST POP PUSH2 0x353 PUSH2 0x6F3 CALLDATASIZE PUSH1 0x4 PUSH2 0x1E99 JUMP JUMPDEST PUSH2 0x1CE3 JUMP JUMPDEST CALLVALUE DUP1 ISZERO PUSH2 0x704 JUMPI PUSH1 0x0 DUP1 REVERT JUMPDEST POP PUSH2 0x21E PUSH2 0x713 CALLDATASIZE PUSH1 0x4 PUSH2 0x1E80 JUMP JUMPDEST PUSH2 0x1D78 JUMP JUMPDEST PUSH1 0x1 PUSH1 0x1 PUSH1 0xA0 SHL SUB DUP2 AND PUSH1 0x0 SWAP1 DUP2 MSTORE PUSH1 0xE PUSH1 0x20 SWAP1 DUP2 MSTORE PUSH1 0x40 DUP1 DUP4 KECCAK256 CALLER DUP5 MSTORE SWAP1 SWAP2 MSTORE SWAP1 KECCAK256 SLOAD DUP1 PUSH2 0x798 JUMPI PUSH1 0x40 MLOAD PUSH3 0x461BCD PUSH1 0xE5 SHL DUP2 MSTORE PUSH1 0x20 PUSH1 0x4 DUP3 ADD MSTORE PUSH1 0x21 PUSH1 0x24 DUP3 ADD MSTORE PUSH32 0x596F7520646F6E2774206861766520546F6B656E7320746F20756E7374616B65 PUSH1 0x44 DUP3 ADD MSTORE PUSH1 0x17 PUSH1 0xF9 SHL PUSH1 0x64 DUP3 ADD MSTORE PUSH1 0x84 ADD JUMPDEST PUSH1 0x40 MLOAD DUP1 SWAP2 SUB SWAP1 REVERT JUMPDEST PUSH2 0x7A0 PUSH2 0x185F JUMP JUMPDEST POP CALLER PUSH1 0x0 SWAP1 DUP2 MSTORE PUSH1 0xD PUSH1 0x20 MSTORE PUSH1 0x40 SWAP1 KECCAK256 SLOAD PUSH2 0x7BD SWAP1 PUSH1 0x1 SWAP1 PUSH2 0x1F1E JUMP JUMPDEST CALLER PUSH1 0x0 DUP2 DUP2 MSTORE PUSH1 0xD PUSH1 0x20 SWAP1 DUP2 MSTORE PUSH1 0x40 DUP1 DUP4 KECCAK256 SWAP5 SWAP1 SWAP5 SSTORE PUSH1 0x1 PUSH1 0x1 PUSH1 0xA0 SHL SUB DUP7 AND DUP1 DUP4 MSTORE PUSH1 0xE DUP3 MSTORE DUP5 DUP4 KECCAK256 DUP5 DUP5 MSTORE DUP3 MSTORE DUP5 DUP4 KECCAK256 DUP4 SWAP1 SSTORE DUP3 MSTORE PUSH1 0x7 DUP2 MSTORE DUP4 DUP3 KECCAK256 SWAP3 DUP3 MSTORE SWAP2 SWAP1 SWAP2 MSTORE KECCAK256 SLOAD PUSH2 0x80F SWAP1 DUP3 SWAP1 PUSH2 0x1F35 JUMP JUMPDEST PUSH1 0x1 PUSH1 0x1 PUSH1 0xA0 SHL SUB DUP4 AND PUSH1 0x0 SWAP1 DUP2 MSTORE PUSH1 0x7 PUSH1 0x20 SWAP1 DUP2 MSTORE PUSH1 0x40 DUP1 DUP4 KECCAK256 CALLER DUP5 MSTORE DUP3 MSTORE DUP1 DUP4 KECCAK256 SWAP4 SWAP1 SWAP4 SSTORE PUSH1 0xD SWAP1 MSTORE KECCAK256 SLOAD PUSH2 0x947 JUMPI PUSH1 0x0 JUMPDEST PUSH1 0x5 SLOAD DUP2 LT ISZERO PUSH2 0x945 JUMPI CALLER PUSH1 0x1 PUSH1 0x1 PUSH1 0xA0 SHL SUB AND PUSH1 0x5 DUP3 DUP2 SLOAD DUP2 LT PUSH2 0x86A JUMPI PUSH2 0x86A PUSH2 0x1F4D JUMP JUMPDEST PUSH1 0x0 SWAP2 DUP3 MSTORE PUSH1 0x20 SWAP1 SWAP2 KECCAK256 ADD SLOAD PUSH1 0x1 PUSH1 0x1 PUSH1 0xA0 SHL SUB AND EQ ISZERO PUSH2 0x933 JUMPI PUSH1 0x5 DUP1 SLOAD PUSH2 0x895 SWAP1 PUSH1 0x1 SWAP1 PUSH2 0x1F1E JUMP JUMPDEST DUP2 SLOAD DUP2 LT PUSH2 0x8A5 JUMPI PUSH2 0x8A5 PUSH2 0x1F4D JUMP JUMPDEST PUSH1 0x0 SWAP2 DUP3 MSTORE PUSH1 0x20 SWAP1 SWAP2 KECCAK256 ADD SLOAD PUSH1 0x5 DUP1 SLOAD PUSH1 0x1 PUSH1 0x1 PUSH1 0xA0 SHL SUB SWAP1 SWAP3 AND SWAP2 DUP4 SWAP1 DUP2 LT PUSH2 0x8D1 JUMPI PUSH2 0x8D1 PUSH2 0x1F4D JUMP JUMPDEST SWAP1 PUSH1 0x0 MSTORE PUSH1 0x20 PUSH1 0x0 KECCAK256 ADD PUSH1 0x0 PUSH2 0x100 EXP DUP2 SLOAD DUP2 PUSH1 0x1 PUSH1 0x1 PUSH1 0xA0 SHL SUB MUL NOT AND SWAP1 DUP4 PUSH1 0x1 PUSH1 0x1 PUSH1 0xA0 SHL SUB AND MUL OR SWAP1 SSTORE POP PUSH1 0x5 DUP1 SLOAD DUP1 PUSH2 0x910 JUMPI PUSH2 0x910 PUSH2 0x1F63 JUMP JUMPDEST PUSH1 0x0 DUP3 DUP2 MSTORE PUSH1 0x20 SWAP1 KECCAK256 DUP2 ADD PUSH1 0x0 NOT SWAP1 DUP2 ADD DUP1 SLOAD PUSH1 0x1 PUSH1 0x1 PUSH1 0xA0 SHL SUB NOT AND SWAP1 SSTORE ADD SWAP1 SSTORE JUMPDEST DUP1 PUSH2 0x93D DUP2 PUSH2 0x1F79 JUMP JUMPDEST SWAP2 POP POP PUSH2 0x843 JUMP JUMPDEST POP JUMPDEST POP POP PUSH1 0x40 DUP1 MLOAD DUP1 DUP3 ADD DUP3 MSTORE PUSH1 0x0 DUP1 DUP3 MSTORE PUSH1 0x20 DUP1 DUP4 ADD DUP3 DUP2 MSTORE CALLER DUP4 MSTORE PUSH1 0xF SWAP1 SWAP2 MSTORE SWAP3 SWAP1 KECCAK256 SWAP1 MLOAD DUP2 SSTORE SWAP1 MLOAD PUSH1 0x1 SWAP1 SWAP2 ADD SSTORE JUMP JUMPDEST PUSH1 0x40 MLOAD PUSH4 0x23B872DD PUSH1 0xE0 SHL DUP2 MSTORE CALLER PUSH1 0x4 DUP3 ADD MSTORE ADDRESS PUSH1 0x24 DUP3 ADD MSTORE PUSH1 0x44 DUP2 ADD DUP3 SWAP1 MSTORE PUSH1 0x1 PUSH1 0x1 PUSH1 0xA0 SHL SUB DUP4 AND SWAP1 PUSH4 0x23B872DD SWAP1 PUSH1 0x64 ADD PUSH1 0x20 PUSH1 0x40 MLOAD DUP1 DUP4 SUB DUP2 PUSH1 0x0 DUP8 GAS CALL ISZERO DUP1 ISZERO PUSH2 0x9CB JUMPI RETURNDATASIZE PUSH1 0x0 DUP1 RETURNDATACOPY RETURNDATASIZE PUSH1 0x0 REVERT JUMPDEST POP POP POP POP PUSH1 0x40 MLOAD RETURNDATASIZE PUSH1 0x1F NOT PUSH1 0x1F DUP3 ADD AND DUP3 ADD DUP1 PUSH1 0x40 MSTORE POP DUP2 ADD SWAP1 PUSH2 0x9EF SWAP2 SWAP1 PUSH2 0x1F94 JUMP JUMPDEST PUSH2 0x9F8 JUMPI PUSH1 0x0 DUP1 REVERT JUMPDEST PUSH1 0x1 PUSH1 0x1 PUSH1 0xA0 SHL SUB DUP3 AND PUSH1 0x0 SWAP1 DUP2 MSTORE PUSH1 0x7 PUSH1 0x20 SWAP1 DUP2 MSTORE PUSH1 0x40 DUP1 DUP4 KECCAK256 CALLER DUP5 MSTORE SWAP1 SWAP2 MSTORE SWAP1 KECCAK256 SLOAD PUSH2 0xA27 SWAP1 DUP3 SWAP1 PUSH2 0x1F35 JUMP JUMPDEST PUSH1 0x1 PUSH1 0x1 PUSH1 0xA0 SHL SUB DUP4 AND PUSH1 0x0 DUP2 DUP2 MSTORE PUSH1 0x7 PUSH1 0x20 SWAP1 DUP2 MSTORE PUSH1 0x40 DUP1 DUP4 KECCAK256 CALLER DUP1 DUP6 MSTORE SWAP1 DUP4 MSTORE SWAP3 DUP2 SWAP1 KECCAK256 SWAP5 SWAP1 SWAP5 SSTORE DUP4 MLOAD SWAP3 DUP4 MSTORE DUP3 ADD DUP5 SWAP1 MSTORE SWAP2 DUP2 ADD SWAP2 SWAP1 SWAP2 MSTORE PUSH32 0xB4E1304F97B5093610F51B33DDAB6622388422E2DAC138B0D32F93DCFBD39EDF SWAP1 PUSH1 0x60 ADD JUMPDEST PUSH1 0x40 MLOAD DUP1 SWAP2 SUB SWAP1 LOG1 POP POP JUMP JUMPDEST CALLER PUSH1 0x0 SWAP1 DUP2 MSTORE PUSH1 0x0 DUP1 MLOAD PUSH1 0x20 PUSH2 0x2240 DUP4 CODECOPY DUP2 MLOAD SWAP2 MSTORE PUSH1 0x20 MSTORE PUSH1 0x40 SWAP1 KECCAK256 SLOAD DUP2 GT ISZERO PUSH2 0xABD JUMPI PUSH1 0x0 DUP1 REVERT JUMPDEST PUSH1 0x40 MLOAD CALLER SWAP1 DUP2 SWAP1 DUP4 ISZERO PUSH2 0x8FC MUL SWAP1 DUP5 SWAP1 PUSH1 0x0 DUP2 DUP2 DUP2 DUP6 DUP9 DUP9 CALL SWAP4 POP POP POP POP ISZERO DUP1 ISZERO PUSH2 0xAEC JUMPI RETURNDATASIZE PUSH1 0x0 DUP1 RETURNDATACOPY RETURNDATASIZE PUSH1 0x0 REVERT JUMPDEST POP CALLER PUSH1 0x0 SWAP1 DUP2 MSTORE PUSH1 0x0 DUP1 MLOAD PUSH1 0x20 PUSH2 0x2240 DUP4 CODECOPY DUP2 MLOAD SWAP2 MSTORE PUSH1 0x20 MSTORE PUSH1 0x40 SWAP1 KECCAK256 SLOAD PUSH2 0xB15 SWAP1 DUP4 SWAP1 PUSH2 0x1F1E JUMP JUMPDEST CALLER PUSH1 0x0 SWAP1 DUP2 MSTORE PUSH1 0x0 DUP1 MLOAD PUSH1 0x20 PUSH2 0x2240 DUP4 CODECOPY DUP2 MLOAD SWAP2 MSTORE PUSH1 0x20 SWAP1 DUP2 MSTORE PUSH1 0x40 DUP1 DUP4 KECCAK256 SWAP4 SWAP1 SWAP4 SSTORE DUP3 MLOAD PUSH1 0x1 PUSH1 0x1 PUSH1 0xA0 SHL SUB DUP6 AND DUP2 MSTORE SWAP1 DUP2 ADD SWAP2 SWAP1 SWAP2 MSTORE SWAP1 DUP2 ADD DUP4 SWAP1 MSTORE PUSH32 0x9B1BFA7FA9EE420A16E124F794C35AC9F90472ACC99140EB2F6447C714CAD8EB SWAP1 PUSH1 0x60 ADD PUSH2 0xA88 JUMP JUMPDEST PUSH1 0x6 DUP2 DUP2 SLOAD DUP2 LT PUSH2 0xB8D JUMPI PUSH1 0x0 DUP1 REVERT JUMPDEST PUSH1 0x0 SWAP2 DUP3 MSTORE PUSH1 0x20 SWAP1 SWAP2 KECCAK256 ADD SLOAD PUSH1 0x1 PUSH1 0x1 PUSH1 0xA0 SHL SUB AND SWAP1 POP DUP2 JUMP JUMPDEST PUSH1 0x0 SLOAD PUSH1 0x1 PUSH1 0x1 PUSH1 0xA0 SHL SUB AND CALLER EQ PUSH2 0xBD1 JUMPI PUSH1 0x40 MLOAD PUSH3 0x461BCD PUSH1 0xE5 SHL DUP2 MSTORE PUSH1 0x4 ADD PUSH2 0x78F SWAP1 PUSH2 0x1FB6 JUMP JUMPDEST PUSH1 0x1 PUSH1 0x1 PUSH1 0xA0 SHL SUB AND PUSH1 0x0 DUP2 DUP2 MSTORE PUSH1 0xC PUSH1 0x20 MSTORE PUSH1 0x40 DUP2 KECCAK256 DUP1 SLOAD PUSH1 0xFF NOT AND PUSH1 0x1 SWAP1 DUP2 OR SWAP1 SWAP2 SSTORE PUSH1 0x6 DUP1 SLOAD SWAP2 DUP3 ADD DUP2 SSTORE SWAP1 SWAP2 MSTORE PUSH32 0xF652222313E28459528D920B65115C16C04F3EFC82AAEDC97BE59F3F377C0D3F ADD DUP1 SLOAD PUSH1 0x1 PUSH1 0x1 PUSH1 0xA0 SHL SUB NOT AND SWAP1 SWAP2 OR SWAP1 SSTORE JUMP JUMPDEST PUSH1 0x0 DUP2 DUP2 MSTORE PUSH1 0xA PUSH1 0x20 MSTORE PUSH1 0x40 SWAP1 KECCAK256 SLOAD PUSH1 0xFF AND ISZERO ISZERO PUSH1 0x1 EQ ISZERO PUSH2 0xC58 JUMPI PUSH1 0x0 DUP1 REVERT JUMPDEST PUSH1 0x0 DUP2 DUP2 MSTORE PUSH1 0x8 PUSH1 0x20 MSTORE PUSH1 0x40 SWAP1 KECCAK256 PUSH1 0x1 DUP2 ADD SLOAD PUSH1 0x1 PUSH1 0x1 PUSH1 0xA0 SHL SUB AND CALLER EQ PUSH2 0xCD3 JUMPI PUSH1 0x40 MLOAD PUSH3 0x461BCD PUSH1 0xE5 SHL DUP2 MSTORE PUSH1 0x20 PUSH1 0x4 DUP3 ADD MSTORE PUSH1 0x28 PUSH1 0x24 DUP3 ADD MSTORE PUSH32 0x596F752063616E206E6F742063616E63656C20736F6D656F6E6520656C736527 PUSH1 0x44 DUP3 ADD MSTORE PUSH8 0x399037B93232B917 PUSH1 0xC1 SHL PUSH1 0x64 DUP3 ADD MSTORE PUSH1 0x84 ADD PUSH2 0x78F JUMP JUMPDEST PUSH1 0x0 DUP3 DUP2 MSTORE PUSH1 0x9 PUSH1 0x20 MSTORE PUSH1 0x40 SWAP1 DUP2 SWAP1 KECCAK256 DUP1 SLOAD PUSH1 0xFF NOT AND PUSH1 0x1 OR SWAP1 SSTORE MLOAD PUSH32 0x3A470524F9AC65CA647D31DE29C54A8F8E1AC4117ABF0C03161CBF5036F626F8 SWAP1 PUSH2 0xA88 SWAP1 DUP4 SWAP1 PUSH2 0x1FEB JUMP JUMPDEST PUSH1 0x1 PUSH1 0x1 PUSH1 0xA0 SHL SUB DUP3 AND PUSH1 0x0 SWAP1 DUP2 MSTORE PUSH1 0x7 PUSH1 0x20 SWAP1 DUP2 MSTORE PUSH1 0x40 DUP1 DUP4 KECCAK256 CALLER DUP5 MSTORE SWAP1 SWAP2 MSTORE DUP2 KECCAK256 SLOAD DUP3 GT ISZERO PUSH2 0xDB5 JUMPI PUSH1 0x40 MLOAD PUSH3 0x461BCD PUSH1 0xE5 SHL DUP2 MSTORE PUSH1 0x20 PUSH1 0x4 DUP3 ADD MSTORE PUSH1 0x37 PUSH1 0x24 DUP3 ADD MSTORE PUSH32 0x596F75206E65656420746F20686176652062616C616E636520696E2074686520 PUSH1 0x44 DUP3 ADD MSTORE PUSH32 0x65786368616E676520746F206D616B65206F726465722E000000000000000000 PUSH1 0x64 DUP3 ADD MSTORE PUSH1 0x84 ADD PUSH2 0x78F JUMP JUMPDEST PUSH1 0x0 DUP1 PUSH2 0xDC1 DUP6 PUSH2 0x1B1D JUMP JUMPDEST SWAP1 SWAP3 POP SWAP1 POP PUSH1 0x0 PUSH2 0xDD3 DUP3 PUSH1 0xA PUSH2 0x2124 JUMP JUMPDEST PUSH2 0xDDD SWAP1 DUP5 PUSH2 0x2130 JUMP JUMPDEST PUSH2 0xDE7 SWAP1 DUP7 PUSH2 0x2152 JUMP JUMPDEST SWAP1 POP PUSH1 0x4 SLOAD PUSH1 0x1 PUSH2 0xDF8 SWAP2 SWAP1 PUSH2 0x1F35 JUMP JUMPDEST PUSH1 0x4 DUP2 DUP2 SSTORE PUSH1 0x40 DUP1 MLOAD PUSH1 0xE0 DUP2 ADD DUP3 MSTORE DUP4 DUP2 MSTORE CALLER PUSH1 0x20 DUP1 DUP4 ADD SWAP2 DUP3 MSTORE PUSH1 0x1 PUSH1 0x1 PUSH1 0xA0 SHL SUB DUP14 DUP2 AND DUP5 DUP7 ADD SWAP1 DUP2 MSTORE PUSH1 0x60 DUP6 ADD DUP10 DUP2 MSTORE DUP15 DUP4 AND PUSH1 0x80 DUP8 ADD SWAP1 DUP2 MSTORE PUSH1 0xA0 DUP8 ADD DUP16 DUP2 MSTORE TIMESTAMP PUSH1 0xC0 DUP10 ADD SWAP1 DUP2 MSTORE PUSH1 0x0 SWAP12 DUP13 MSTORE PUSH1 0x8 SWAP1 SWAP7 MSTORE SWAP10 DUP9 SWAP1 KECCAK256 DUP8 MLOAD DUP2 SSTORE SWAP6 MLOAD PUSH1 0x1 DUP8 ADD DUP1 SLOAD SWAP2 DUP7 AND PUSH1 0x1 PUSH1 0x1 PUSH1 0xA0 SHL SUB NOT SWAP3 DUP4 AND OR SWAP1 SSTORE SWAP3 MLOAD PUSH1 0x2 DUP8 ADD DUP1 SLOAD SWAP2 DUP7 AND SWAP2 DUP6 AND SWAP2 SWAP1 SWAP2 OR SWAP1 SSTORE SWAP1 MLOAD PUSH1 0x3 DUP7 ADD SSTORE MLOAD SWAP7 DUP5 ADD DUP1 SLOAD SWAP8 SWAP1 SWAP3 AND SWAP7 AND SWAP6 SWAP1 SWAP6 OR SWAP1 SWAP5 SSTORE SWAP4 MLOAD PUSH1 0x5 DUP6 ADD SSTORE SWAP2 MLOAD PUSH1 0x6 SWAP1 SWAP4 ADD SWAP3 SWAP1 SWAP3 SSTORE SWAP1 MLOAD PUSH32 0x406B4BBAEDB873D044998F2837CAD2F86AECDB1D1452869C74D2B308D98F7A22 SWAP1 PUSH2 0xF38 SWAP1 DUP4 SWAP1 PUSH1 0x0 PUSH1 0xE0 DUP3 ADD SWAP1 POP DUP3 MLOAD DUP3 MSTORE PUSH1 0x20 DUP4 ADD MLOAD PUSH1 0x1 DUP1 PUSH1 0xA0 SHL SUB DUP1 DUP3 AND PUSH1 0x20 DUP6 ADD MSTORE DUP1 PUSH1 0x40 DUP7 ADD MLOAD AND PUSH1 0x40 DUP6 ADD MSTORE PUSH1 0x60 DUP6 ADD MLOAD PUSH1 0x60 DUP6 ADD MSTORE DUP1 PUSH1 0x80 DUP7 ADD MLOAD AND PUSH1 0x80 DUP6 ADD MSTORE POP POP PUSH1 0xA0 DUP4 ADD MLOAD PUSH1 0xA0 DUP4 ADD MSTORE PUSH1 0xC0 DUP4 ADD MLOAD PUSH1 0xC0 DUP4 ADD MSTORE SWAP3 SWAP2 POP POP JUMP JUMPDEST PUSH1 0x40 MLOAD DUP1 SWAP2 SUB SWAP1 LOG1 POP SWAP7 SWAP6 POP POP POP POP POP POP JUMP JUMPDEST PUSH1 0x0 DUP2 DUP2 MSTORE PUSH1 0xA PUSH1 0x20 MSTORE PUSH1 0x40 SWAP1 KECCAK256 SLOAD PUSH1 0xFF AND ISZERO ISZERO PUSH1 0x1 EQ ISZERO PUSH2 0xFAF JUMPI PUSH1 0x40 MLOAD PUSH3 0x461BCD PUSH1 0xE5 SHL DUP2 MSTORE PUSH1 0x20 PUSH1 0x4 DUP3 ADD MSTORE PUSH1 0x1C PUSH1 0x24 DUP3 ADD MSTORE PUSH32 0x546865204F726465722068617320616C72656164792066696C6C656400000000 PUSH1 0x44 DUP3 ADD MSTORE PUSH1 0x64 ADD PUSH2 0x78F JUMP JUMPDEST PUSH1 0x0 DUP2 DUP2 MSTORE PUSH1 0x9 PUSH1 0x20 MSTORE PUSH1 0x40 SWAP1 KECCAK256 SLOAD PUSH1 0xFF AND ISZERO ISZERO PUSH1 0x1 EQ ISZERO PUSH2 0x102B JUMPI PUSH1 0x40 MLOAD PUSH3 0x461BCD PUSH1 0xE5 SHL DUP2 MSTORE PUSH1 0x20 PUSH1 0x4 DUP3 ADD MSTORE PUSH1 0x2F PUSH1 0x24 DUP3 ADD MSTORE PUSH32 0x546865204F7264657220686173206265656E2063616E63656C65642062792074 PUSH1 0x44 DUP3 ADD MSTORE PUSH15 0x34329037B93232B91037BBB732B917 PUSH1 0x89 SHL PUSH1 0x64 DUP3 ADD MSTORE PUSH1 0x84 ADD PUSH2 0x78F JUMP JUMPDEST PUSH1 0x0 DUP2 DUP2 MSTORE PUSH1 0x8 PUSH1 0x20 MSTORE PUSH1 0x40 DUP2 KECCAK256 PUSH1 0x2 SLOAD PUSH1 0x5 DUP3 ADD SLOAD SWAP2 SWAP3 SWAP2 PUSH1 0x64 SWAP2 PUSH2 0x1050 SWAP2 PUSH2 0x2152 JUMP JUMPDEST PUSH2 0x105A SWAP2 SWAP1 PUSH2 0x2130 JUMP JUMPDEST SWAP1 POP DUP1 DUP3 PUSH1 0x5 ADD SLOAD PUSH2 0x106C SWAP2 SWAP1 PUSH2 0x1F35 JUMP JUMPDEST PUSH1 0x4 DUP4 ADD SLOAD PUSH1 0x1 PUSH1 0x1 PUSH1 0xA0 SHL SUB SWAP1 DUP2 AND PUSH1 0x0 SWAP1 DUP2 MSTORE PUSH1 0x7 PUSH1 0x20 SWAP1 DUP2 MSTORE PUSH1 0x40 DUP1 DUP4 KECCAK256 PUSH1 0x1 DUP9 ADD SLOAD SWAP1 SWAP5 AND DUP4 MSTORE SWAP3 SWAP1 MSTORE KECCAK256 SLOAD PUSH2 0x10A6 SWAP2 SWAP1 PUSH2 0x1F1E JUMP JUMPDEST PUSH1 0x4 DUP4 ADD DUP1 SLOAD PUSH1 0x1 PUSH1 0x1 PUSH1 0xA0 SHL SUB SWAP1 DUP2 AND PUSH1 0x0 SWAP1 DUP2 MSTORE PUSH1 0x7 PUSH1 0x20 DUP2 DUP2 MSTORE PUSH1 0x40 DUP1 DUP5 KECCAK256 PUSH1 0x1 DUP11 ADD SLOAD DUP7 AND DUP6 MSTORE DUP3 MSTORE DUP1 DUP5 KECCAK256 SWAP7 SWAP1 SWAP7 SSTORE PUSH1 0x5 DUP9 ADD SLOAD SWAP5 SLOAD SWAP1 SWAP4 AND DUP3 MSTORE DUP3 MSTORE DUP4 DUP2 KECCAK256 CALLER DUP3 MSTORE SWAP1 SWAP2 MSTORE SWAP2 SWAP1 SWAP2 KECCAK256 SLOAD PUSH2 0x1100 SWAP2 SWAP1 PUSH2 0x1F35 JUMP JUMPDEST PUSH1 0x4 DUP4 ADD SLOAD PUSH1 0x1 PUSH1 0x1 PUSH1 0xA0 SHL SUB SWAP1 DUP2 AND PUSH1 0x0 SWAP1 DUP2 MSTORE PUSH1 0x7 PUSH1 0x20 DUP2 DUP2 MSTORE PUSH1 0x40 DUP1 DUP5 KECCAK256 CALLER DUP1 DUP7 MSTORE SWAP1 DUP4 MSTORE DUP2 DUP6 KECCAK256 SWAP7 SWAP1 SWAP7 SSTORE PUSH1 0x3 DUP9 ADD SLOAD PUSH1 0x2 DUP10 ADD SLOAD SWAP1 SWAP6 AND DUP5 MSTORE SWAP2 DUP2 MSTORE DUP2 DUP4 KECCAK256 SWAP5 DUP4 MSTORE SWAP4 SWAP1 SWAP4 MSTORE SWAP2 SWAP1 SWAP2 KECCAK256 SLOAD PUSH2 0x115A SWAP2 SWAP1 PUSH2 0x1F1E JUMP JUMPDEST PUSH1 0x2 DUP4 ADD DUP1 SLOAD PUSH1 0x1 PUSH1 0x1 PUSH1 0xA0 SHL SUB SWAP1 DUP2 AND PUSH1 0x0 SWAP1 DUP2 MSTORE PUSH1 0x7 PUSH1 0x20 DUP2 DUP2 MSTORE PUSH1 0x40 DUP1 DUP5 KECCAK256 CALLER DUP6 MSTORE DUP3 MSTORE DUP1 DUP5 KECCAK256 SWAP7 SWAP1 SWAP7 SSTORE PUSH1 0x3 DUP9 ADD SLOAD SWAP5 SLOAD DUP5 AND DUP4 MSTORE SWAP1 DUP2 MSTORE DUP5 DUP3 KECCAK256 PUSH1 0x1 DUP9 ADD SLOAD SWAP1 SWAP4 AND DUP3 MSTORE SWAP2 SWAP1 SWAP2 MSTORE SWAP2 SWAP1 SWAP2 KECCAK256 SLOAD PUSH2 0x11B6 SWAP2 SWAP1 PUSH2 0x1F35 JUMP JUMPDEST PUSH1 0x2 DUP4 ADD SLOAD PUSH1 0x1 PUSH1 0x1 PUSH1 0xA0 SHL SUB SWAP1 DUP2 AND PUSH1 0x0 SWAP1 DUP2 MSTORE PUSH1 0x7 PUSH1 0x20 DUP2 DUP2 MSTORE PUSH1 0x40 DUP1 DUP5 KECCAK256 PUSH1 0x1 DUP1 DUP11 ADD SLOAD DUP8 AND DUP7 MSTORE SWAP1 DUP4 MSTORE DUP2 DUP6 KECCAK256 SWAP7 SWAP1 SWAP7 SSTORE PUSH1 0x4 DUP9 ADD SLOAD DUP6 AND DUP5 MSTORE SWAP2 DUP2 MSTORE DUP2 DUP4 KECCAK256 DUP6 SLOAD SWAP1 SWAP5 AND DUP4 MSTORE SWAP3 DUP4 MSTORE DUP1 DUP3 KECCAK256 DUP6 SWAP1 SSTORE DUP7 DUP3 MSTORE PUSH1 0xA DUP4 MSTORE DUP1 DUP3 KECCAK256 DUP1 SLOAD PUSH1 0xFF NOT SWAP1 DUP2 AND DUP7 OR SWAP1 SWAP2 SSTORE PUSH1 0x9 SWAP1 SWAP4 MSTORE SWAP1 DUP2 SWAP1 KECCAK256 DUP1 SLOAD SWAP1 SWAP3 AND SWAP1 SWAP3 OR SWAP1 SSTORE MLOAD PUSH32 0xDC2BE07770E51C83D921E50C8B82E389EF7579BF58467EBB3AD0D4D781029FC8 SWAP1 PUSH2 0x1262 SWAP1 DUP5 SWAP1 PUSH2 0x1FEB JUMP JUMPDEST PUSH1 0x40 MLOAD DUP1 SWAP2 SUB SWAP1 LOG1 POP POP POP JUMP JUMPDEST PUSH1 0x0 SLOAD PUSH1 0x1 PUSH1 0x1 PUSH1 0xA0 SHL SUB AND CALLER EQ PUSH2 0x1299 JUMPI PUSH1 0x40 MLOAD PUSH3 0x461BCD PUSH1 0xE5 SHL DUP2 MSTORE PUSH1 0x4 ADD PUSH2 0x78F SWAP1 PUSH2 0x1FB6 JUMP JUMPDEST PUSH2 0x12A3 PUSH1 0x0 PUSH2 0x1D88 JUMP JUMPDEST JUMP JUMPDEST PUSH1 0x0 SLOAD PUSH1 0x1 PUSH1 0x1 PUSH1 0xA0 SHL SUB AND CALLER EQ PUSH2 0x12CF JUMPI PUSH1 0x40 MLOAD PUSH3 0x461BCD PUSH1 0xE5 SHL DUP2 MSTORE PUSH1 0x4 ADD PUSH2 0x78F SWAP1 PUSH2 0x1FB6 JUMP JUMPDEST PUSH1 0x1 PUSH1 0x1 PUSH1 0xA0 SHL SUB SWAP2 DUP3 AND PUSH1 0x0 SWAP1 DUP2 MSTORE PUSH1 0xB PUSH1 0x20 MSTORE PUSH1 0x40 SWAP1 KECCAK256 DUP1 SLOAD PUSH1 0x1 PUSH1 0x1 PUSH1 0xA0 SHL SUB NOT AND SWAP2 SWAP1 SWAP3 AND OR SWAP1 SSTORE JUMP JUMPDEST CALLER PUSH1 0x0 SWAP1 DUP2 MSTORE PUSH1 0x0 DUP1 MLOAD PUSH1 0x20 PUSH2 0x2240 DUP4 CODECOPY DUP2 MLOAD SWAP2 MSTORE PUSH1 0x20 MSTORE PUSH1 0x40 SWAP1 KECCAK256 SLOAD PUSH2 0x1325 SWAP1 CALLVALUE SWAP1 PUSH2 0x1F35 JUMP JUMPDEST CALLER PUSH1 0x0 DUP2 DUP2 MSTORE PUSH1 0x0 DUP1 MLOAD PUSH1 0x20 PUSH2 0x2240 DUP4 CODECOPY DUP2 MLOAD SWAP2 MSTORE PUSH1 0x20 SWAP1 DUP2 MSTORE PUSH1 0x40 DUP1 DUP4 KECCAK256 SWAP5 SWAP1 SWAP5 SSTORE DUP4 MLOAD SWAP2 DUP3 MSTORE CALLVALUE SWAP1 DUP3 ADD MSTORE SWAP2 DUP3 ADD MSTORE PUSH32 0xB4E1304F97B5093610F51B33DDAB6622388422E2DAC138B0D32F93DCFBD39EDF SWAP1 PUSH1 0x60 ADD PUSH1 0x40 MLOAD DUP1 SWAP2 SUB SWAP1 LOG1 JUMP JUMPDEST PUSH1 0x1 PUSH1 0x1 PUSH1 0xA0 SHL SUB DUP3 AND PUSH2 0x1398 JUMPI PUSH1 0x0 DUP1 REVERT JUMPDEST PUSH1 0x1 PUSH1 0x1 PUSH1 0xA0 SHL SUB DUP3 AND PUSH1 0x0 SWAP1 DUP2 MSTORE PUSH1 0x7 PUSH1 0x20 SWAP1 DUP2 MSTORE PUSH1 0x40 DUP1 DUP4 KECCAK256 CALLER DUP5 MSTORE SWAP1 SWAP2 MSTORE SWAP1 KECCAK256 SLOAD DUP2 GT ISZERO PUSH2 0x13C8 JUMPI PUSH1 0x0 DUP1 REVERT JUMPDEST PUSH1 0x40 MLOAD PUSH4 0xA9059CBB PUSH1 0xE0 SHL DUP2 MSTORE CALLER PUSH1 0x4 DUP3 ADD MSTORE PUSH1 0x24 DUP2 ADD DUP3 SWAP1 MSTORE PUSH1 0x1 PUSH1 0x1 PUSH1 0xA0 SHL SUB DUP4 AND SWAP1 PUSH4 0xA9059CBB SWAP1 PUSH1 0x44 ADD PUSH1 0x20 PUSH1 0x40 MLOAD DUP1 DUP4 SUB DUP2 PUSH1 0x0 DUP8 GAS CALL ISZERO DUP1 ISZERO PUSH2 0x1415 JUMPI RETURNDATASIZE PUSH1 0x0 DUP1 RETURNDATACOPY RETURNDATASIZE PUSH1 0x0 REVERT JUMPDEST POP POP POP POP PUSH1 0x40 MLOAD RETURNDATASIZE PUSH1 0x1F NOT PUSH1 0x1F DUP3 ADD AND DUP3 ADD DUP1 PUSH1 0x40 MSTORE POP DUP2 ADD SWAP1 PUSH2 0x1439 SWAP2 SWAP1 PUSH2 0x1F94 JUMP JUMPDEST PUSH2 0x1442 JUMPI PUSH1 0x0 DUP1 REVERT JUMPDEST PUSH1 0x1 PUSH1 0x1 PUSH1 0xA0 SHL SUB DUP3 AND PUSH1 0x0 SWAP1 DUP2 MSTORE PUSH1 0x7 PUSH1 0x20 SWAP1 DUP2 MSTORE PUSH1 0x40 DUP1 DUP4 KECCAK256 CALLER DUP5 MSTORE SWAP1 SWAP2 MSTORE SWAP1 KECCAK256 SLOAD PUSH2 0x1471 SWAP1 DUP3 SWAP1 PUSH2 0x1F1E JUMP JUMPDEST PUSH1 0x1 PUSH1 0x1 PUSH1 0xA0 SHL SUB DUP4 AND PUSH1 0x0 DUP2 DUP2 MSTORE PUSH1 0x7 PUSH1 0x20 SWAP1 DUP2 MSTORE PUSH1 0x40 DUP1 DUP4 KECCAK256 CALLER DUP1 DUP6 MSTORE SWAP1 DUP4 MSTORE SWAP3 DUP2 SWAP1 KECCAK256 SWAP5 SWAP1 SWAP5 SSTORE DUP4 MLOAD SWAP2 DUP3 MSTORE DUP2 ADD SWAP2 SWAP1 SWAP2 MSTORE SWAP1 DUP2 ADD DUP3 SWAP1 MSTORE PUSH32 0x9B1BFA7FA9EE420A16E124F794C35AC9F90472ACC99140EB2F6447C714CAD8EB SWAP1 PUSH1 0x60 ADD PUSH2 0xA88 JUMP JUMPDEST PUSH1 0x0 SLOAD PUSH1 0x1 PUSH1 0x1 PUSH1 0xA0 SHL SUB AND CALLER EQ PUSH2 0x1500 JUMPI PUSH1 0x40 MLOAD PUSH3 0x461BCD PUSH1 0xE5 SHL DUP2 MSTORE PUSH1 0x4 ADD PUSH2 0x78F SWAP1 PUSH2 0x1FB6 JUMP JUMPDEST PUSH1 0x0 JUMPDEST PUSH1 0x5 SLOAD DUP2 LT ISZERO PUSH2 0x1629 JUMPI PUSH1 0x0 PUSH1 0x5 DUP3 DUP2 SLOAD DUP2 LT PUSH2 0x1522 JUMPI PUSH2 0x1522 PUSH2 0x1F4D JUMP JUMPDEST PUSH1 0x0 SWAP2 DUP3 MSTORE PUSH1 0x20 DUP3 KECCAK256 ADD SLOAD PUSH1 0x2 SLOAD PUSH1 0x1 PUSH1 0x1 PUSH1 0xA0 SHL SUB SWAP1 SWAP2 AND SWAP3 POP PUSH1 0x64 SWAP1 PUSH2 0x1549 DUP5 PUSH2 0x1A2E JUMP JUMPDEST PUSH2 0x1553 SWAP2 SWAP1 PUSH2 0x2152 JUMP JUMPDEST PUSH2 0x155D SWAP2 SWAP1 PUSH2 0x2130 JUMP JUMPDEST PUSH1 0x3 SLOAD PUSH1 0x1 PUSH1 0x1 PUSH1 0xA0 SHL SUB SWAP1 DUP2 AND PUSH1 0x0 SWAP1 DUP2 MSTORE PUSH1 0x7 PUSH1 0x20 SWAP1 DUP2 MSTORE PUSH1 0x40 DUP1 DUP4 KECCAK256 PUSH1 0x1 SLOAD SWAP1 SWAP5 AND DUP4 MSTORE SWAP3 SWAP1 MSTORE KECCAK256 SLOAD SWAP1 SWAP2 POP PUSH2 0x1597 SWAP1 DUP3 SWAP1 PUSH2 0x1F1E JUMP JUMPDEST PUSH1 0x3 DUP1 SLOAD PUSH1 0x1 PUSH1 0x1 PUSH1 0xA0 SHL SUB SWAP1 DUP2 AND PUSH1 0x0 SWAP1 DUP2 MSTORE PUSH1 0x7 PUSH1 0x20 DUP2 DUP2 MSTORE PUSH1 0x40 DUP1 DUP5 KECCAK256 PUSH1 0x1 SLOAD DUP7 AND DUP6 MSTORE DUP3 MSTORE DUP1 DUP5 KECCAK256 SWAP7 SWAP1 SWAP7 SSTORE SWAP4 SLOAD DUP4 AND DUP3 MSTORE DUP4 MSTORE DUP4 DUP2 KECCAK256 SWAP2 DUP7 AND DUP2 MSTORE SWAP2 MSTORE KECCAK256 SLOAD PUSH2 0x15E6 SWAP1 DUP3 SWAP1 PUSH2 0x1F35 JUMP JUMPDEST PUSH1 0x3 SLOAD PUSH1 0x1 PUSH1 0x1 PUSH1 0xA0 SHL SUB SWAP1 DUP2 AND PUSH1 0x0 SWAP1 DUP2 MSTORE PUSH1 0x7 PUSH1 0x20 SWAP1 DUP2 MSTORE PUSH1 0x40 DUP1 DUP4 KECCAK256 SWAP7 SWAP1 SWAP4 AND DUP3 MSTORE SWAP5 SWAP1 SWAP5 MSTORE SWAP1 SWAP3 KECCAK256 SWAP2 SWAP1 SWAP2 SSTORE POP DUP1 PUSH2 0x1621 DUP2 PUSH2 0x1F79 JUMP JUMPDEST SWAP2 POP POP PUSH2 0x1503 JUMP JUMPDEST POP JUMP JUMPDEST PUSH1 0x0 PUSH2 0x1638 DUP4 CALLER PUSH2 0x1CB6 JUMP JUMPDEST PUSH1 0x1 PUSH1 0x1 PUSH1 0xA0 SHL SUB DUP5 AND PUSH1 0x0 SWAP1 DUP2 MSTORE PUSH1 0xC PUSH1 0x20 MSTORE PUSH1 0x40 SWAP1 KECCAK256 SLOAD SWAP1 SWAP2 POP PUSH1 0xFF AND PUSH2 0x16A3 JUMPI PUSH1 0x40 MLOAD PUSH3 0x461BCD PUSH1 0xE5 SHL DUP2 MSTORE PUSH1 0x20 PUSH1 0x4 DUP3 ADD MSTORE PUSH1 0x17 PUSH1 0x24 DUP3 ADD MSTORE PUSH32 0x5468697320546F6B656E206E6F7420616C6C6F7765642E000000000000000000 PUSH1 0x44 DUP3 ADD MSTORE PUSH1 0x64 ADD PUSH2 0x78F JUMP JUMPDEST DUP2 DUP2 LT ISZERO PUSH2 0x16E0 JUMPI PUSH1 0x40 MLOAD PUSH3 0x461BCD PUSH1 0xE5 SHL DUP2 MSTORE PUSH1 0x20 PUSH1 0x4 DUP3 ADD MSTORE PUSH1 0xA PUSH1 0x24 DUP3 ADD MSTORE PUSH10 0x2732B2B21036B7B93297 PUSH1 0xB1 SHL PUSH1 0x44 DUP3 ADD MSTORE PUSH1 0x64 ADD PUSH2 0x78F JUMP JUMPDEST CALLER PUSH1 0x0 SWAP1 DUP2 MSTORE PUSH1 0xD PUSH1 0x20 MSTORE PUSH1 0x40 SWAP1 KECCAK256 SLOAD ISZERO PUSH2 0x1703 JUMPI PUSH2 0x16FD PUSH2 0x185F JUMP JUMPDEST POP PUSH2 0x1746 JUMP JUMPDEST PUSH1 0x5 DUP1 SLOAD PUSH1 0x1 DUP2 ADD DUP3 SSTORE PUSH1 0x0 SWAP2 SWAP1 SWAP2 MSTORE PUSH32 0x36B6384B5ECA791C62761152D0C79BB0604C104A5FB6F4EB0703F3154BB3DB0 ADD DUP1 SLOAD PUSH1 0x1 PUSH1 0x1 PUSH1 0xA0 SHL SUB NOT AND CALLER OR SWAP1 SSTORE JUMPDEST PUSH2 0x174F CALLER PUSH2 0x1DD8 JUMP JUMPDEST PUSH1 0x0 PUSH1 0x64 PUSH1 0x2 SLOAD DUP5 PUSH2 0x1761 SWAP2 SWAP1 PUSH2 0x2152 JUMP JUMPDEST PUSH2 0x176B SWAP2 SWAP1 PUSH2 0x2130 JUMP JUMPDEST SWAP1 POP PUSH2 0x1777 DUP2 DUP5 PUSH2 0x1F35 JUMP JUMPDEST PUSH1 0x1 PUSH1 0x1 PUSH1 0xA0 SHL SUB DUP6 AND PUSH1 0x0 SWAP1 DUP2 MSTORE PUSH1 0x7 PUSH1 0x20 SWAP1 DUP2 MSTORE PUSH1 0x40 DUP1 DUP4 KECCAK256 CALLER DUP5 MSTORE SWAP1 SWAP2 MSTORE SWAP1 KECCAK256 SLOAD PUSH2 0x17A5 SWAP2 SWAP1 PUSH2 0x1F1E JUMP JUMPDEST PUSH1 0x1 PUSH1 0x1 PUSH1 0xA0 SHL SUB DUP6 AND PUSH1 0x0 DUP2 DUP2 MSTORE PUSH1 0x7 PUSH1 0x20 SWAP1 DUP2 MSTORE PUSH1 0x40 DUP1 DUP4 KECCAK256 CALLER DUP1 DUP6 MSTORE SWAP1 DUP4 MSTORE DUP2 DUP5 KECCAK256 SWAP6 SWAP1 SWAP6 SSTORE SWAP3 DUP3 MSTORE PUSH1 0xE DUP2 MSTORE DUP3 DUP3 KECCAK256 SWAP4 DUP3 MSTORE SWAP3 SWAP1 SWAP3 MSTORE SWAP1 KECCAK256 SLOAD PUSH2 0x17ED SWAP1 DUP5 SWAP1 PUSH2 0x1F35 JUMP JUMPDEST PUSH1 0x1 PUSH1 0x1 PUSH1 0xA0 SHL SUB SWAP5 DUP6 AND PUSH1 0x0 DUP2 DUP2 MSTORE PUSH1 0xE PUSH1 0x20 SWAP1 DUP2 MSTORE PUSH1 0x40 DUP1 DUP4 KECCAK256 CALLER DUP1 DUP6 MSTORE SWAP1 DUP4 MSTORE DUP2 DUP5 KECCAK256 SWAP6 DUP7 SSTORE SWAP4 DUP4 MSTORE PUSH1 0x7 DUP3 MSTORE DUP1 DUP4 KECCAK256 PUSH1 0x1 DUP1 SLOAD SWAP1 SWAP11 AND DUP5 MSTORE DUP3 MSTORE DUP1 DUP4 KECCAK256 SWAP6 SWAP1 SWAP6 SSTORE DUP5 MLOAD DUP1 DUP7 ADD DUP7 MSTORE SWAP4 SLOAD DUP5 MSTORE TIMESTAMP DUP5 DUP3 ADD SWAP1 DUP2 MSTORE SWAP3 DUP3 MSTORE PUSH1 0xF SWAP1 MSTORE SWAP3 SWAP1 SWAP3 KECCAK256 SWAP1 MLOAD DUP2 SSTORE SWAP1 MLOAD SWAP4 ADD SWAP3 SWAP1 SWAP3 SSTORE POP POP JUMP JUMPDEST CALLER PUSH1 0x0 SWAP1 DUP2 MSTORE PUSH1 0xD PUSH1 0x20 MSTORE PUSH1 0x40 DUP2 KECCAK256 SLOAD PUSH2 0x18C7 JUMPI PUSH1 0x40 MLOAD PUSH3 0x461BCD PUSH1 0xE5 SHL DUP2 MSTORE PUSH1 0x20 PUSH1 0x4 DUP3 ADD MSTORE PUSH1 0x24 DUP1 DUP3 ADD MSTORE PUSH32 0x596F7520646F6E2774206861766520616E7920746F6B656E207374616B656420 PUSH1 0x44 DUP3 ADD MSTORE PUSH4 0x79657421 PUSH1 0xE0 SHL PUSH1 0x64 DUP3 ADD MSTORE PUSH1 0x84 ADD PUSH2 0x78F JUMP JUMPDEST CALLER PUSH1 0x0 SWAP1 DUP2 MSTORE PUSH1 0xF PUSH1 0x20 MSTORE PUSH1 0x40 SWAP1 KECCAK256 DUP1 SLOAD PUSH2 0x191C JUMPI PUSH1 0x40 MLOAD PUSH3 0x461BCD PUSH1 0xE5 SHL DUP2 MSTORE PUSH1 0x20 PUSH1 0x4 DUP3 ADD MSTORE PUSH1 0x15 PUSH1 0x24 DUP3 ADD MSTORE PUSH21 0x2737BA1032B737BAB3B4103932B9B7BAB931B2B997 PUSH1 0x59 SHL PUSH1 0x44 DUP3 ADD MSTORE PUSH1 0x64 ADD PUSH2 0x78F JUMP JUMPDEST PUSH1 0x0 DUP2 PUSH1 0x1 ADD SLOAD TIMESTAMP PUSH2 0x192E SWAP2 SWAP1 PUSH2 0x1F1E JUMP JUMPDEST DUP3 SLOAD PUSH2 0x1940 SWAP1 PUSH5 0xE8D4A51000 SWAP1 PUSH2 0x2130 JUMP JUMPDEST PUSH2 0x194A SWAP2 SWAP1 PUSH2 0x2152 JUMP JUMPDEST PUSH1 0x3 SLOAD PUSH1 0x1 PUSH1 0x1 PUSH1 0xA0 SHL SUB SWAP1 DUP2 AND PUSH1 0x0 SWAP1 DUP2 MSTORE PUSH1 0x7 PUSH1 0x20 SWAP1 DUP2 MSTORE PUSH1 0x40 DUP1 DUP4 KECCAK256 PUSH1 0x1 SLOAD SWAP1 SWAP5 AND DUP4 MSTORE SWAP3 SWAP1 MSTORE KECCAK256 SLOAD SWAP1 SWAP2 POP PUSH2 0x1984 SWAP1 DUP3 SWAP1 PUSH2 0x1F1E JUMP JUMPDEST PUSH1 0x3 DUP1 SLOAD PUSH1 0x1 PUSH1 0x1 PUSH1 0xA0 SHL SUB SWAP1 DUP2 AND PUSH1 0x0 SWAP1 DUP2 MSTORE PUSH1 0x7 PUSH1 0x20 DUP2 DUP2 MSTORE PUSH1 0x40 DUP1 DUP5 KECCAK256 PUSH1 0x1 SLOAD DUP7 AND DUP6 MSTORE DUP3 MSTORE DUP1 DUP5 KECCAK256 SWAP7 SWAP1 SWAP7 SSTORE SWAP4 SLOAD SWAP1 SWAP3 AND DUP2 MSTORE SWAP1 DUP3 MSTORE DUP3 DUP2 KECCAK256 CALLER DUP3 MSTORE SWAP1 SWAP2 MSTORE KECCAK256 SLOAD PUSH2 0x19D4 SWAP1 DUP3 SWAP1 PUSH2 0x1F35 JUMP JUMPDEST PUSH1 0x3 SLOAD PUSH1 0x1 PUSH1 0x1 PUSH1 0xA0 SHL SUB AND PUSH1 0x0 SWAP1 DUP2 MSTORE PUSH1 0x7 PUSH1 0x20 SWAP1 DUP2 MSTORE PUSH1 0x40 DUP1 DUP4 KECCAK256 CALLER DUP1 DUP6 MSTORE SWAP1 DUP4 MSTORE DUP2 DUP5 KECCAK256 SWAP5 SWAP1 SWAP5 SSTORE DUP1 MLOAD DUP1 DUP3 ADD DUP3 MSTORE SWAP6 SLOAD DUP7 MSTORE TIMESTAMP DUP7 DUP4 ADD SWAP1 DUP2 MSTORE SWAP4 DUP4 MSTORE PUSH1 0xF SWAP1 SWAP2 MSTORE SWAP1 KECCAK256 SWAP3 MLOAD DUP4 SSTORE MLOAD PUSH1 0x1 SWAP1 SWAP3 ADD SWAP2 SWAP1 SWAP2 SSTORE SWAP2 SWAP1 POP JUMP JUMPDEST PUSH1 0x1 PUSH1 0x1 PUSH1 0xA0 SHL SUB DUP2 AND PUSH1 0x0 SWAP1 DUP2 MSTORE PUSH1 0xD PUSH1 0x20 MSTORE PUSH1 0x40 DUP2 KECCAK256 SLOAD DUP2 SWAP1 PUSH2 0x1A65 JUMPI PUSH1 0x40 MLOAD PUSH3 0x461BCD PUSH1 0xE5 SHL DUP2 MSTORE PUSH1 0x4 ADD PUSH2 0x78F SWAP1 PUSH2 0x2171 JUMP JUMPDEST PUSH1 0x0 JUMPDEST PUSH1 0x6 SLOAD DUP2 LT ISZERO PUSH2 0x1B16 JUMPI PUSH1 0x0 PUSH1 0xE PUSH1 0x0 PUSH1 0x6 DUP5 DUP2 SLOAD DUP2 LT PUSH2 0x1A8B JUMPI PUSH2 0x1A8B PUSH2 0x1F4D JUMP JUMPDEST PUSH1 0x0 SWAP2 DUP3 MSTORE PUSH1 0x20 DUP1 DUP4 KECCAK256 SWAP1 SWAP2 ADD SLOAD PUSH1 0x1 PUSH1 0x1 PUSH1 0xA0 SHL SUB SWAP1 DUP2 AND DUP5 MSTORE DUP4 DUP3 ADD SWAP5 SWAP1 SWAP5 MSTORE PUSH1 0x40 SWAP3 DUP4 ADD DUP3 KECCAK256 SWAP4 DUP10 AND DUP3 MSTORE SWAP3 SWAP1 SWAP3 MSTORE SWAP1 KECCAK256 SLOAD GT ISZERO PUSH2 0x1B04 JUMPI PUSH2 0x1AF7 DUP5 PUSH1 0x6 DUP4 DUP2 SLOAD DUP2 LT PUSH2 0x1ADD JUMPI PUSH2 0x1ADD PUSH2 0x1F4D JUMP JUMPDEST PUSH1 0x0 SWAP2 DUP3 MSTORE PUSH1 0x20 SWAP1 SWAP2 KECCAK256 ADD SLOAD PUSH1 0x1 PUSH1 0x1 PUSH1 0xA0 SHL SUB AND PUSH2 0x1CE3 JUMP JUMPDEST PUSH2 0x1B01 SWAP1 DUP4 PUSH2 0x1F35 JUMP JUMPDEST SWAP2 POP JUMPDEST DUP1 PUSH2 0x1B0E DUP2 PUSH2 0x1F79 JUMP JUMPDEST SWAP2 POP POP PUSH2 0x1A68 JUMP JUMPDEST POP SWAP3 SWAP2 POP POP JUMP JUMPDEST PUSH1 0x1 PUSH1 0x1 PUSH1 0xA0 SHL SUB DUP1 DUP3 AND PUSH1 0x0 SWAP1 DUP2 MSTORE PUSH1 0xB PUSH1 0x20 MSTORE PUSH1 0x40 DUP1 DUP3 KECCAK256 SLOAD DUP2 MLOAD PUSH4 0x3FABE5A3 PUSH1 0xE2 SHL DUP2 MSTORE SWAP2 MLOAD SWAP3 SWAP4 DUP5 SWAP4 SWAP2 AND SWAP2 DUP3 SWAP2 DUP5 SWAP2 DUP4 SWAP2 PUSH4 0xFEAF968C SWAP2 PUSH1 0x4 DUP1 DUP3 ADD SWAP3 PUSH1 0xA0 SWAP3 SWAP1 SWAP2 SWAP1 DUP3 SWAP1 SUB ADD DUP2 DUP7 GAS STATICCALL ISZERO DUP1 ISZERO PUSH2 0x1B7E JUMPI RETURNDATASIZE PUSH1 0x0 DUP1 RETURNDATACOPY RETURNDATASIZE PUSH1 0x0 REVERT JUMPDEST POP POP POP POP PUSH1 0x40 MLOAD RETURNDATASIZE PUSH1 0x1F NOT PUSH1 0x1F DUP3 ADD AND DUP3 ADD DUP1 PUSH1 0x40 MSTORE POP DUP2 ADD SWAP1 PUSH2 0x1BA2 SWAP2 SWAP1 PUSH2 0x21CC JUMP JUMPDEST POP POP POP SWAP2 POP POP PUSH1 0x0 DUP3 PUSH1 0x1 PUSH1 0x1 PUSH1 0xA0 SHL SUB AND PUSH4 0x313CE567 PUSH1 0x40 MLOAD DUP2 PUSH4 0xFFFFFFFF AND PUSH1 0xE0 SHL DUP2 MSTORE PUSH1 0x4 ADD PUSH1 0x20 PUSH1 0x40 MLOAD DUP1 DUP4 SUB DUP2 DUP7 GAS STATICCALL ISZERO DUP1 ISZERO PUSH2 0x1BE8 JUMPI RETURNDATASIZE PUSH1 0x0 DUP1 RETURNDATACOPY RETURNDATASIZE PUSH1 0x0 REVERT JUMPDEST POP POP POP POP PUSH1 0x40 MLOAD RETURNDATASIZE PUSH1 0x1F NOT PUSH1 0x1F DUP3 ADD AND DUP3 ADD DUP1 PUSH1 0x40 MSTORE POP DUP2 ADD SWAP1 PUSH2 0x1C0C SWAP2 SWAP1 PUSH2 0x221C JUMP JUMPDEST SWAP2 SWAP8 PUSH1 0xFF SWAP1 SWAP3 AND SWAP7 POP SWAP1 SWAP5 POP POP POP POP POP JUMP JUMPDEST PUSH1 0x0 SLOAD PUSH1 0x1 PUSH1 0x1 PUSH1 0xA0 SHL SUB AND CALLER EQ PUSH2 0x1C48 JUMPI PUSH1 0x40 MLOAD PUSH3 0x461BCD PUSH1 0xE5 SHL DUP2 MSTORE PUSH1 0x4 ADD PUSH2 0x78F SWAP1 PUSH2 0x1FB6 JUMP JUMPDEST PUSH1 0x1 PUSH1 0x1 PUSH1 0xA0 SHL SUB DUP2 AND PUSH2 0x1CAD JUMPI PUSH1 0x40 MLOAD PUSH3 0x461BCD PUSH1 0xE5 SHL DUP2 MSTORE PUSH1 0x20 PUSH1 0x4 DUP3 ADD MSTORE PUSH1 0x26 PUSH1 0x24 DUP3 ADD MSTORE PUSH32 0x4F776E61626C653A206E6577206F776E657220697320746865207A65726F2061 PUSH1 0x44 DUP3 ADD MSTORE PUSH6 0x646472657373 PUSH1 0xD0 SHL PUSH1 0x64 DUP3 ADD MSTORE PUSH1 0x84 ADD PUSH2 0x78F JUMP JUMPDEST PUSH2 0x1629 DUP2 PUSH2 0x1D88 JUMP JUMPDEST PUSH1 0x1 PUSH1 0x1 PUSH1 0xA0 SHL SUB DUP1 DUP4 AND PUSH1 0x0 SWAP1 DUP2 MSTORE PUSH1 0x7 PUSH1 0x20 SWAP1 DUP2 MSTORE PUSH1 0x40 DUP1 DUP4 KECCAK256 SWAP4 DUP6 AND DUP4 MSTORE SWAP3 SWAP1 MSTORE KECCAK256 SLOAD JUMPDEST SWAP3 SWAP2 POP POP JUMP JUMPDEST PUSH1 0x1 PUSH1 0x1 PUSH1 0xA0 SHL SUB DUP3 AND PUSH1 0x0 SWAP1 DUP2 MSTORE PUSH1 0xD PUSH1 0x20 MSTORE PUSH1 0x40 DUP2 KECCAK256 SLOAD PUSH2 0x1D18 JUMPI PUSH1 0x40 MLOAD PUSH3 0x461BCD PUSH1 0xE5 SHL DUP2 MSTORE PUSH1 0x4 ADD PUSH2 0x78F SWAP1 PUSH2 0x2171 JUMP JUMPDEST PUSH1 0x0 DUP1 PUSH2 0x1D24 DUP5 PUSH2 0x1B1D JUMP JUMPDEST SWAP1 SWAP3 POP SWAP1 POP PUSH2 0x1D34 DUP2 PUSH1 0xA PUSH2 0x2124 JUMP JUMPDEST PUSH1 0x1 PUSH1 0x1 PUSH1 0xA0 SHL SUB DUP1 DUP7 AND PUSH1 0x0 SWAP1 DUP2 MSTORE PUSH1 0xE PUSH1 0x20 SWAP1 DUP2 MSTORE PUSH1 0x40 DUP1 DUP4 KECCAK256 SWAP4 DUP11 AND DUP4 MSTORE SWAP3 SWAP1 MSTORE KECCAK256 SLOAD PUSH2 0x1D65 SWAP1 DUP5 SWAP1 PUSH2 0x2152 JUMP JUMPDEST PUSH2 0x1D6F SWAP2 SWAP1 PUSH2 0x2130 JUMP JUMPDEST SWAP6 SWAP5 POP POP POP POP POP JUMP JUMPDEST PUSH1 0x5 DUP2 DUP2 SLOAD DUP2 LT PUSH2 0xB8D JUMPI PUSH1 0x0 DUP1 REVERT JUMPDEST PUSH1 0x0 DUP1 SLOAD PUSH1 0x1 PUSH1 0x1 PUSH1 0xA0 SHL SUB DUP4 DUP2 AND PUSH1 0x1 PUSH1 0x1 PUSH1 0xA0 SHL SUB NOT DUP4 AND DUP2 OR DUP5 SSTORE PUSH1 0x40 MLOAD SWAP2 SWAP1 SWAP3 AND SWAP3 DUP4 SWAP2 PUSH32 0x8BE0079C531659141344CD1FD0A4F28419497F9722A3DAAFE3B4186F6B6457E0 SWAP2 SWAP1 LOG3 POP POP JUMP JUMPDEST PUSH1 0x1 PUSH1 0x1 PUSH1 0xA0 SHL SUB DUP2 AND PUSH1 0x0 SWAP1 DUP2 MSTORE PUSH1 0xD PUSH1 0x20 MSTORE PUSH1 0x40 SWAP1 KECCAK256 SLOAD PUSH2 0x1DFC SWAP1 PUSH1 0x1 PUSH2 0x1F35 JUMP JUMPDEST PUSH1 0x1 PUSH1 0x1 PUSH1 0xA0 SHL SUB SWAP1 SWAP2 AND PUSH1 0x0 SWAP1 DUP2 MSTORE PUSH1 0xD PUSH1 0x20 MSTORE PUSH1 0x40 SWAP1 KECCAK256 SSTORE JUMP JUMPDEST DUP1 CALLDATALOAD PUSH1 0x1 PUSH1 0x1 PUSH1 0xA0 SHL SUB DUP2 AND DUP2 EQ PUSH2 0x1E2F JUMPI PUSH1 0x0 DUP1 REVERT JUMPDEST SWAP2 SWAP1 POP JUMP JUMPDEST PUSH1 0x0 PUSH1 0x20 DUP3 DUP5 SUB SLT ISZERO PUSH2 0x1E46 JUMPI PUSH1 0x0 DUP1 REVERT JUMPDEST PUSH2 0x1E4F DUP3 PUSH2 0x1E18 JUMP JUMPDEST SWAP4 SWAP3 POP POP POP JUMP JUMPDEST PUSH1 0x0 DUP1 PUSH1 0x40 DUP4 DUP6 SUB SLT ISZERO PUSH2 0x1E69 JUMPI PUSH1 0x0 DUP1 REVERT JUMPDEST PUSH2 0x1E72 DUP4 PUSH2 0x1E18 JUMP JUMPDEST SWAP5 PUSH1 0x20 SWAP4 SWAP1 SWAP4 ADD CALLDATALOAD SWAP4 POP POP POP JUMP JUMPDEST PUSH1 0x0 PUSH1 0x20 DUP3 DUP5 SUB SLT ISZERO PUSH2 0x1E92 JUMPI PUSH1 0x0 DUP1 REVERT JUMPDEST POP CALLDATALOAD SWAP2 SWAP1 POP JUMP JUMPDEST PUSH1 0x0 DUP1 PUSH1 0x40 DUP4 DUP6 SUB SLT ISZERO PUSH2 0x1EAC JUMPI PUSH1 0x0 DUP1 REVERT JUMPDEST PUSH2 0x1EB5 DUP4 PUSH2 0x1E18 JUMP JUMPDEST SWAP2 POP PUSH2 0x1EC3 PUSH1 0x20 DUP5 ADD PUSH2 0x1E18 JUMP JUMPDEST SWAP1 POP SWAP3 POP SWAP3 SWAP1 POP JUMP JUMPDEST PUSH1 0x0 DUP1 PUSH1 0x0 PUSH1 0x60 DUP5 DUP7 SUB SLT ISZERO PUSH2 0x1EE1 JUMPI PUSH1 0x0 DUP1 REVERT JUMPDEST PUSH2 0x1EEA DUP5 PUSH2 0x1E18 JUMP JUMPDEST SWAP3 POP PUSH2 0x1EF8 PUSH1 0x20 DUP6 ADD PUSH2 0x1E18 JUMP JUMPDEST SWAP2 POP PUSH1 0x40 DUP5 ADD CALLDATALOAD SWAP1 POP SWAP3 POP SWAP3 POP SWAP3 JUMP JUMPDEST PUSH4 0x4E487B71 PUSH1 0xE0 SHL PUSH1 0x0 MSTORE PUSH1 0x11 PUSH1 0x4 MSTORE PUSH1 0x24 PUSH1 0x0 REVERT JUMPDEST PUSH1 0x0 DUP3 DUP3 LT ISZERO PUSH2 0x1F30 JUMPI PUSH2 0x1F30 PUSH2 0x1F08 JUMP JUMPDEST POP SUB SWAP1 JUMP JUMPDEST PUSH1 0x0 DUP3 NOT DUP3 GT ISZERO PUSH2 0x1F48 JUMPI PUSH2 0x1F48 PUSH2 0x1F08 JUMP JUMPDEST POP ADD SWAP1 JUMP JUMPDEST PUSH4 0x4E487B71 PUSH1 0xE0 SHL PUSH1 0x0 MSTORE PUSH1 0x32 PUSH1 0x4 MSTORE PUSH1 0x24 PUSH1 0x0 REVERT JUMPDEST PUSH4 0x4E487B71 PUSH1 0xE0 SHL PUSH1 0x0 MSTORE PUSH1 0x31 PUSH1 0x4 MSTORE PUSH1 0x24 PUSH1 0x0 REVERT JUMPDEST PUSH1 0x0 PUSH1 0x0 NOT DUP3 EQ ISZERO PUSH2 0x1F8D JUMPI PUSH2 0x1F8D PUSH2 0x1F08 JUMP JUMPDEST POP PUSH1 0x1 ADD SWAP1 JUMP JUMPDEST PUSH1 0x0 PUSH1 0x20 DUP3 DUP5 SUB SLT ISZERO PUSH2 0x1FA6 JUMPI PUSH1 0x0 DUP1 REVERT JUMPDEST DUP2 MLOAD DUP1 ISZERO ISZERO DUP2 EQ PUSH2 0x1E4F JUMPI PUSH1 0x0 DUP1 REVERT JUMPDEST PUSH1 0x20 DUP1 DUP3 MSTORE DUP2 DUP2 ADD MSTORE PUSH32 0x4F776E61626C653A2063616C6C6572206973206E6F7420746865206F776E6572 PUSH1 0x40 DUP3 ADD MSTORE PUSH1 0x60 ADD SWAP1 JUMP JUMPDEST DUP2 SLOAD DUP2 MSTORE PUSH1 0x1 DUP3 ADD SLOAD PUSH1 0x1 PUSH1 0x1 PUSH1 0xA0 SHL SUB SWAP1 DUP2 AND PUSH1 0x20 DUP4 ADD MSTORE PUSH1 0x2 DUP4 ADD SLOAD DUP2 AND PUSH1 0x40 DUP4 ADD MSTORE PUSH1 0x3 DUP4 ADD SLOAD PUSH1 0x60 DUP4 ADD MSTORE PUSH1 0x4 DUP4 ADD SLOAD AND PUSH1 0x80 DUP3 ADD MSTORE PUSH1 0x5 DUP3 ADD SLOAD PUSH1 0xA0 DUP3 ADD MSTORE PUSH1 0x6 SWAP1 SWAP2 ADD SLOAD PUSH1 0xC0 DUP3 ADD MSTORE PUSH1 0xE0 ADD SWAP1 JUMP JUMPDEST PUSH1 0x1 DUP2 DUP2 JUMPDEST DUP1 DUP6 GT ISZERO PUSH2 0x207B JUMPI DUP2 PUSH1 0x0 NOT DIV DUP3 GT ISZERO PUSH2 0x2061 JUMPI PUSH2 0x2061 PUSH2 0x1F08 JUMP JUMPDEST DUP1 DUP6 AND ISZERO PUSH2 0x206E JUMPI SWAP2 DUP2 MUL SWAP2 JUMPDEST SWAP4 DUP5 SHR SWAP4 SWAP1 DUP1 MUL SWAP1 PUSH2 0x2045 JUMP JUMPDEST POP SWAP3 POP SWAP3 SWAP1 POP JUMP JUMPDEST PUSH1 0x0 DUP3 PUSH2 0x2092 JUMPI POP PUSH1 0x1 PUSH2 0x1CDD JUMP JUMPDEST DUP2 PUSH2 0x209F JUMPI POP PUSH1 0x0 PUSH2 0x1CDD JUMP JUMPDEST DUP2 PUSH1 0x1 DUP2 EQ PUSH2 0x20B5 JUMPI PUSH1 0x2 DUP2 EQ PUSH2 0x20BF JUMPI PUSH2 0x20DB JUMP JUMPDEST PUSH1 0x1 SWAP2 POP POP PUSH2 0x1CDD JUMP JUMPDEST PUSH1 0xFF DUP5 GT ISZERO PUSH2 0x20D0 JUMPI PUSH2 0x20D0 PUSH2 0x1F08 JUMP JUMPDEST POP POP PUSH1 0x1 DUP3 SHL PUSH2 0x1CDD JUMP JUMPDEST POP PUSH1 0x20 DUP4 LT PUSH2 0x133 DUP4 LT AND PUSH1 0x4E DUP5 LT PUSH1 0xB DUP5 LT AND OR ISZERO PUSH2 0x20FE JUMPI POP DUP2 DUP2 EXP PUSH2 0x1CDD JUMP JUMPDEST PUSH2 0x2108 DUP4 DUP4 PUSH2 0x2040 JUMP JUMPDEST DUP1 PUSH1 0x0 NOT DIV DUP3 GT ISZERO PUSH2 0x211C JUMPI PUSH2 0x211C PUSH2 0x1F08 JUMP JUMPDEST MUL SWAP4 SWAP3 POP POP POP JUMP JUMPDEST PUSH1 0x0 PUSH2 0x1E4F DUP4 DUP4 PUSH2 0x2083 JUMP JUMPDEST PUSH1 0x0 DUP3 PUSH2 0x214D JUMPI PUSH4 0x4E487B71 PUSH1 0xE0 SHL PUSH1 0x0 MSTORE PUSH1 0x12 PUSH1 0x4 MSTORE PUSH1 0x24 PUSH1 0x0 REVERT JUMPDEST POP DIV SWAP1 JUMP JUMPDEST PUSH1 0x0 DUP2 PUSH1 0x0 NOT DIV DUP4 GT DUP3 ISZERO ISZERO AND ISZERO PUSH2 0x216C JUMPI PUSH2 0x216C PUSH2 0x1F08 JUMP JUMPDEST POP MUL SWAP1 JUMP JUMPDEST PUSH1 0x20 DUP1 DUP3 MSTORE PUSH1 0x21 SWAP1 DUP3 ADD MSTORE PUSH32 0x5573657220646F6E2774206861766520616E792076616C7565207374616B6564 PUSH1 0x40 DUP3 ADD MSTORE PUSH1 0x17 PUSH1 0xF9 SHL PUSH1 0x60 DUP3 ADD MSTORE PUSH1 0x80 ADD SWAP1 JUMP JUMPDEST DUP1 MLOAD PUSH10 0xFFFFFFFFFFFFFFFFFFFF DUP2 AND DUP2 EQ PUSH2 0x1E2F JUMPI PUSH1 0x0 DUP1 REVERT JUMPDEST PUSH1 0x0 DUP1 PUSH1 0x0 DUP1 PUSH1 0x0 PUSH1 0xA0 DUP7 DUP9 SUB SLT ISZERO PUSH2 0x21E4 JUMPI PUSH1 0x0 DUP1 REVERT JUMPDEST PUSH2 0x21ED DUP7 PUSH2 0x21B2 JUMP JUMPDEST SWAP5 POP PUSH1 0x20 DUP7 ADD MLOAD SWAP4 POP PUSH1 0x40 DUP7 ADD MLOAD SWAP3 POP PUSH1 0x60 DUP7 ADD MLOAD SWAP2 POP PUSH2 0x2210 PUSH1 0x80 DUP8 ADD PUSH2 0x21B2 JUMP JUMPDEST SWAP1 POP SWAP3 SWAP6 POP SWAP3 SWAP6 SWAP1 SWAP4 POP JUMP JUMPDEST PUSH1 0x0 PUSH1 0x20 DUP3 DUP5 SUB SLT ISZERO PUSH2 0x222E JUMPI PUSH1 0x0 DUP1 REVERT JUMPDEST DUP2 MLOAD PUSH1 0xFF DUP2 AND DUP2 EQ PUSH2 0x1E4F JUMPI PUSH1 0x0 DUP1 REVERT INVALID PUSH14 0x5257204EBE7D88FD91AE87941CB2 0xDD SWAP14 DUP1 PUSH3 0xB64AE5 LOG2 0xBD 0x2D 0x28 0xEC BLOCKHASH 0xB9 0xFB 0xF6 0xDF LOG2 PUSH5 0x6970667358 0x22 SLT KECCAK256 SUB PUSH24 0xB8DF171532C8538267F812A0B68A726AD6C960EF06702B14 0xD3 SWAP14 0xBD PUSH13 0x883F64736F6C634300080C0033 ",
  "sha1": "4e55b9b4820412dfb61c98ef4262dafd7cb118d2",
  "source": "// SPDX-License-Identifier: MIT\n\npragma solidity ^0.8.0;\nimport \"@openzeppelin/contracts/token/ERC20/ERC20.sol\";\nimport \"@openzeppelin/contracts/access/Ownable.sol\";\nimport \"@chainlink/contracts/src/v0.8/interfaces/AggregatorV3Interface.sol\";\n\ncontract Exchange is Ownable {\n    //Zero address account for Ether\n    address constant ETHER = address(0);\n    address feeAccount;\n    uint256 feePercentage;\n    address token;\n    uint256 public orderCounter = 0;\n    address[] public stakers;\n    address[] public allowedToken;\n\n    // Model for Order\n    struct _Order {\n        uint256 id;\n        address user;\n        address tokenGet;\n        uint256 amountGet;\n        address tokenGive;\n        uint256 amountGive;\n        uint256 timestamp;\n    }\n\n    // Stakers model\n    struct _stakeOrder {\n        uint256 amount;\n        uint256 timestamp;\n    }\n\n    //Mapping for how much token a individual has deposited\n    mapping(address => mapping(address => uint256))\n        public token_depositer_amount;\n    mapping(uint256 => _Order) public id_to_order;\n    mapping(uint256 => bool) public id_to_cancelOrder;\n    mapping(uint256 => bool) public id_to_fillOrder;\n    mapping(address => address) public tokenPriceFeedMapping;\n    mapping(address => bool) public allowedToken_to_bool;\n    mapping(address => uint256) public staker_uniqueTokenStaked;\n    mapping(address => mapping(address => uint256)) public token_staker_amount;\n    mapping(address => _stakeOrder) public stakerToStakingOrder;\n\n    //Events\n    event Deposited(address token, uint256 _amount, address depositer);\n    event Withdraw(address withdrawer, address token, uint256 amount);\n    event Order(_Order Order);\n    event OrderCanceled(_Order Order);\n    event OrderFilled(_Order Order);\n\n    constructor(\n        address _feeAccount,\n        uint256 _feePercentage,\n        address _token\n    ) public {\n        feeAccount = _feeAccount;\n        feePercentage = _feePercentage;\n        token = _token;\n        allowedToken_to_bool[_token] = true;\n        allowedToken_to_bool[ETHER] = true;\n        allowedToken = [_token, ETHER];\n    }\n\n    // Deposit Token\n    function depositToken(address _token, uint256 _amount) public {\n        require(ERC20(_token).transferFrom(msg.sender, address(this), _amount));\n        token_depositer_amount[_token][msg.sender] =\n            token_depositer_amount[_token][msg.sender] +\n            _amount;\n        emit Deposited(_token, _amount, msg.sender);\n    }\n\n    // Deposite Ether\n    function depositEther() public payable {\n        token_depositer_amount[ETHER][msg.sender] =\n            token_depositer_amount[ETHER][msg.sender] +\n            msg.value;\n        emit Deposited(ETHER, msg.value, msg.sender);\n    }\n\n    // Withdrawing ether\n    function withdrawEther(uint256 _amount) public {\n        require(token_depositer_amount[ETHER][msg.sender] >= _amount);\n        address payable withdrawer = payable(msg.sender);\n        withdrawer.transfer(_amount);\n        token_depositer_amount[ETHER][msg.sender] =\n            token_depositer_amount[ETHER][msg.sender] -\n            _amount;\n        emit Withdraw(withdrawer, ETHER, _amount);\n    }\n\n    function withdrawToken(address _token, uint256 _amount) public {\n        require(_token != ETHER);\n        require(token_depositer_amount[_token][msg.sender] >= _amount);\n        require(ERC20(_token).transfer(msg.sender, _amount));\n        token_depositer_amount[_token][msg.sender] =\n            token_depositer_amount[_token][msg.sender] -\n            _amount;\n        emit Withdraw(msg.sender, _token, _amount);\n    }\n\n    function balanceOf(address _token, address _user)\n        public\n        view\n        returns (uint256)\n    {\n        return token_depositer_amount[_token][_user];\n    }\n\n    // Make function for making orders\n    function makeOrder(\n        address _tokenGet,\n        address _tokenGive,\n        uint256 _amountGive\n    ) public returns (uint256) {\n        require(\n            token_depositer_amount[_tokenGive][msg.sender] >= _amountGive,\n            \"You need to have balance in the exchange to make order.\"\n        );\n        (uint256 price, uint256 decimal) = getTokenValue(_tokenGive);\n        //     // Here _amountGive should be in wei form --> 10 **18\n        uint256 amountGet = _amountGive * (price / 10**decimal);\n        orderCounter = orderCounter + 1;\n        _Order memory order = _Order(\n            orderCounter,\n            msg.sender,\n            _tokenGet,\n            amountGet,\n            _tokenGive,\n            _amountGive,\n            block.timestamp\n        );\n        id_to_order[orderCounter] = order;\n        emit Order(order);\n        return amountGet;\n    }\n\n    function getTokenValue(address _token)\n        public\n        view\n        returns (uint256, uint256)\n    {\n        address priceFeedAddress = tokenPriceFeedMapping[_token];\n        AggregatorV3Interface priceFeed = AggregatorV3Interface(\n            priceFeedAddress\n        );\n        (, int256 price, , , ) = priceFeed.latestRoundData();\n        uint256 decimals = uint256(priceFeed.decimals());\n        return (uint256(price), decimals);\n    }\n\n    // Setting the price feed address to the corresponding token\n    function setTokenPriceFeedMapping(address _token, address _priceFeedAddress)\n        public\n        onlyOwner\n    {\n        tokenPriceFeedMapping[_token] = _priceFeedAddress;\n    }\n\n    function cancelOrder(uint256 _id) public {\n        require(id_to_fillOrder[_id] != true);\n        _Order storage order = id_to_order[_id];\n        require(\n            order.user == msg.sender,\n            \"You can not cancel someone else's order.\"\n        );\n        id_to_cancelOrder[_id] = true;\n        emit OrderCanceled(order);\n    }\n\n    function fillOrder(uint256 _id) public {\n        require(id_to_fillOrder[_id] != true, \"The Order has already filled\");\n        require(\n            id_to_cancelOrder[_id] != true,\n            \"The Order has been canceled by the order owner.\"\n        );\n\n        _Order storage order = id_to_order[_id];\n\n        uint256 feeAmount = (order.amountGive * feePercentage) / 100;\n        // Token Given\n        // Here all the assest is in this contract so we don't need to transfer the assest any where\n        // we can just update their mapping\n        token_depositer_amount[order.tokenGive][order.user] =\n            token_depositer_amount[order.tokenGive][order.user] -\n            (order.amountGive + feeAmount);\n        token_depositer_amount[order.tokenGive][msg.sender] =\n            token_depositer_amount[order.tokenGive][msg.sender] +\n            order.amountGive;\n\n        // // Token Get\n        token_depositer_amount[order.tokenGet][msg.sender] =\n            token_depositer_amount[order.tokenGet][msg.sender] -\n            order.amountGet;\n        token_depositer_amount[order.tokenGet][order.user] =\n            token_depositer_amount[order.tokenGet][order.user] +\n            order.amountGet;\n\n        // // FeeAmount to FeeAccount\n        token_depositer_amount[order.tokenGive][feeAccount] = feeAmount;\n        id_to_fillOrder[_id] = true;\n        id_to_cancelOrder[_id] = true;\n        emit OrderFilled(order);\n    }\n\n    function stake(address _token, uint256 _amount) public {\n        // Which token to stake\n        // How much to stake\n        uint256 depositBalance = balanceOf(_token, msg.sender);\n        require(allowedToken_to_bool[_token], \"This Token not allowed.\");\n        require(depositBalance >= _amount, \"Need more.\");\n\n        if (staker_uniqueTokenStaked[msg.sender] != 0) {\n            issueTokenAdvanced();\n        } else {\n            stakers.push(msg.sender);\n        }\n\n        updateUniqueTokenStaked(msg.sender);\n        uint256 feeAmount = (_amount * feePercentage) / 100;\n        token_depositer_amount[_token][msg.sender] =\n            token_depositer_amount[_token][msg.sender] -\n            (_amount + feeAmount);\n        token_staker_amount[_token][msg.sender] =\n            token_staker_amount[_token][msg.sender] +\n            _amount;\n        token_depositer_amount[_token][feeAccount] = feeAmount;\n\n        stakerToStakingOrder[msg.sender] = _stakeOrder(\n            token_staker_amount[_token][msg.sender],\n            block.timestamp\n        );\n    }\n\n    function updateUniqueTokenStaked(address user) internal {\n        staker_uniqueTokenStaked[user] = staker_uniqueTokenStaked[user] + 1;\n    }\n\n    function addAllowedToken(address _token) public onlyOwner {\n        allowedToken_to_bool[_token] = true;\n        allowedToken.push(_token);\n    }\n\n    function unstakeTokens(address _token) public {\n        uint256 balance = token_staker_amount[_token][msg.sender];\n\n        require(balance > 0, \"You don't have Tokens to unstake.\");\n\n        issueTokenAdvanced();\n        staker_uniqueTokenStaked[msg.sender] =\n            staker_uniqueTokenStaked[msg.sender] -\n            1;\n        token_staker_amount[_token][msg.sender] = 0;\n        token_depositer_amount[_token][msg.sender] =\n            token_depositer_amount[_token][msg.sender] +\n            balance;\n        if (staker_uniqueTokenStaked[msg.sender] == 0) {\n            for (\n                uint256 stakersIndex = 0;\n                stakersIndex < stakers.length;\n                stakersIndex++\n            ) {\n                if (stakers[stakersIndex] == msg.sender) {\n                    stakers[stakersIndex] = stakers[stakers.length - 1];\n                    stakers.pop();\n                }\n            }\n        }\n        stakerToStakingOrder[msg.sender] = _stakeOrder(0, 0);\n    }\n\n    // Update this as such --> That user can claim there reward according to the timeStamp\n    function issueToken() public onlyOwner {\n        // issue a reward to all the staker according to the amount they have staked\n\n        for (\n            uint256 stakersIndex = 0;\n            stakersIndex < stakers.length;\n            stakersIndex++\n        ) {\n            address staker = stakers[stakersIndex];\n            uint256 reward = (getStakerTotalValue(staker) * feePercentage) /\n                100;\n\n            token_depositer_amount[token][feeAccount] =\n                token_depositer_amount[token][feeAccount] -\n                reward;\n\n            token_depositer_amount[token][staker] =\n                token_depositer_amount[token][staker] +\n                reward;\n        }\n    }\n\n    function getStakerTotalValue(address _staker)\n        public\n        view\n        returns (uint256)\n    {\n        uint256 totalValue = 0;\n        require(\n            staker_uniqueTokenStaked[_staker] > 0,\n            \"User don't have any value staked.\"\n        );\n        for (\n            uint256 allowedTokenIndex = 0;\n            allowedTokenIndex < allowedToken.length;\n            allowedTokenIndex++\n        ) {\n            if (\n                token_staker_amount[allowedToken[allowedTokenIndex]][_staker] >\n                0\n            ) {\n                totalValue =\n                    totalValue +\n                    getStakersSingleTokenValue(\n                        _staker,\n                        allowedToken[allowedTokenIndex]\n                    );\n            }\n        }\n        return totalValue;\n    }\n\n    function getStakersSingleTokenValue(address _staker, address _token)\n        public\n        view\n        returns (uint256)\n    {\n        require(\n            staker_uniqueTokenStaked[_staker] > 0,\n            \"User don't have any value staked.\"\n        );\n\n        (uint256 price, uint256 decimals) = getTokenValue(_token);\n        return ((token_staker_amount[_token][_staker] * price) /\n            (10**decimals));\n    }\n\n    function issueTokenAdvanced() public returns (uint256) {\n        require(\n            staker_uniqueTokenStaked[msg.sender] > 0,\n            \"You don't have any token staked yet!\"\n        );\n        _stakeOrder storage stakeOrder = stakerToStakingOrder[msg.sender];\n        require(stakeOrder.amount > 0, \"Not enough resources.\");\n\n        uint256 reward = (stakeOrder.amount / 10**12) *\n            (block.timestamp - stakeOrder.timestamp);\n\n        token_depositer_amount[token][feeAccount] =\n            token_depositer_amount[token][feeAccount] -\n            reward;\n\n        token_depositer_amount[token][msg.sender] =\n            token_depositer_amount[token][msg.sender] +\n            reward;\n\n        stakerToStakingOrder[msg.sender] = _stakeOrder(\n            stakeOrder.amount,\n            block.timestamp\n        );\n        return reward;\n    }\n}\n",
  "sourcePath": "contracts/Exchange.sol",
  "type": "contract"
}